:100000000C944B000C94AC1B0C94AC1B0C94AC1BD0
:100010000C94AC1B0C94AC1B0C94AC1B0C94AC1B44
:100020000C94AC1B0C94AC1B0C94AC1B0C94AC1B34
:100030000C94AC1B0C94AC1B0C94AC1B0C94AC1B24
:100040000C94AC1B0C94AC1B0C94AC1B0C94AC1B14
:100050000C94AC1B0C94AC1B0C94AC1B0C94AC1B04
:100060000C94AC1B0C94AC1B0C94AC1B0C94AC1BF4
:100070000C94AC1B0C94AC1B38003802803802384E
:10008000130037663813381B80381B381F0037774A
:10009000381F3821800011241FBECFEFCDBFDFE312
:1000A000DEBFE8E7F0E040E017C0B591A5913591DB
:1000B0002591059107FD0CC095918591EF01F92FD0
:1000C000E82F05900D92A217B307D9F7FE0104C0DF
:1000D0001D92A217B307E1F7E539F40731F70E9443
:0A00E000FE180C94B81AF894FFCF34
:1000EA00A5E2B0E0EBE7F0E00C9449198E8F9F8F00
:1000FA006E8B7F8B298FFB010190F081E02DE987C0
:10010A00FA87FB0102811381248135812A8B3B8B7B
:10011A008085918588A399A326803780FA018080FB
:10012A009180A280B38020E030E0A901C501B4012A
:10013A000E94901B87FF06C0B7FAB094B7F8B09434
:10014A008DE204C0598552FF54C38BE2F1018083CA
:10015A002A893B89215031092B833C8341E050E0B5
:10016A00488B598B06C08A899B898B839C83188A02
:10017A00198AD501C401BF770097E0E8AE07EFE717
:10018A00BE0799F4F98D2F2FFF0F330B2154310934
:10019A0088899989820D931D2A31310518F464E7FB
:1001AA0076EB19C068E776EB16C00197A048BF47FF
:1001BA00A8F0498D242F440F330B21543109888923
:1001CA009989820D931D2A31310518F46CE776EB73
:1001DA0002C060E876EB0E942A1BFAC220E030E0F7
:1001EA00A901C501B4010E94901BC12CD12C20E8A1
:1001FA00E22E2FE3F22E19821A82882309F48CC088
:10020A008D829E82AF82B88620E030E040E251E4DF
:10021A00C701B6010E949E1B2B013C01D501C401F6
:10022A0084199509A609B709B7FF07C0B095A09523
:10023A00909581959F4FAF4FBF4F0297A105B1058A
:10024A0044F489819A81019689839A8373016201B0
:10025A00DBCFA5019401C301B2010E94901B87FD67
:10026A00F0CF8D819E81AF81B8858C199D09AE0929
:10027A00BF090196A11DB11D0397A105B10508F497
:10028A0049C01D821E82A5019401C701B6010E94C0
:10029A00951B18160CF040C0E981FA81E43DFE4F27
:1002AA00E4F44D815E81452BC1F420E030E040E862
:1002BA005AE5C501B4010E949E1B4B015C0120E076
:1002CA0030E040E85AE5C701B6010E949E1B6B0167
:1002DA007C0181E090E08D839E8320E030E040E263
:1002EA0051E4C701B6010E949A1B6B017C01E981A6
:1002FA00FA813197E983FA83D501C4018C199D09E2
:10030A00AE09BF090196A11DB11D0397A105B1054B
:10031A0008F0B9CF46015701F98D8F2FFF0F990BBE
:10032A000E94321B888F17FD03C00D831E8304C0F1
:10033A0026E030E02D833E83388D373639F4012BA1
:10034A0041F441E050E04D835E8303C0288D2F873E
:10035A0014C089819A818C3F9F4F0CF44FC28981C6
:10036A009A81ED81FE818E179F070CF047C2298181
:10037A003A8137FF46C236E63F874D815E814F5F3D
:10038A005F4F4D835E835F855636B9F489819A81C2
:10039A0097FF08C0C12CD12C90E8E92E9FE3F92ED3
:1003AA0019821A82988D973641F0ED81FE81298152
:1003BA003A81E20FF31FED83FE831C2DDCA2EAA231
:1003CA000F2D8B869C86AD86BE861C8A1D8A8C89DB
:1003DA009D89ED81FE818E179F07DCF5212F3CA1B7
:1003EA004AA1502F6B857C858D859E850E949A1B1C
:1003FA000E9409122B013C010E94511B6A8FA30122
:10040A009201612F7CA18AA1902F0E949E1B2B85AD
:10041A003C854D855E850E944A1B9B01AC01505864
:10042A002B873C874D875E8720E030E040E251E42D
:10043A00612F7CA18AA1902F0E949A1B162F7CA360
:10044A008AA3092F4C895D894F5F5F4F4C8B5D8B67
:10045A00BECF20E030E040EA50E4612F7CA18AA1BF
:10046A00902F0E949E1B2B013C019B01AC016B85C6
:10047A007C858D859E850E94901B87FD0DC0A301FA
:10048A0092016B857C858D859E850E94901B8111CA
:10049A0006C0FA8DF0FD03C0412C512C3201A50192
:1004AA009401C301B2010E944B1B4B015C0120E085
:1004BA0030E040E251E4C701B6010E949E1B6B87FF
:1004CA007C8B182F092F9B01482F592FC501B40186
:1004DA000E94951B87FD14C029813A812F5F3F4FE7
:1004EA0029833A833F85363679F44D815E814F5FA1
:1004FA005F4F4D835E835B855CA38C898DA30BC0A4
:10050A00CB86DC8A1E2D0F2D9F85953639F0EB851B
:10051A00ECA3FC89FDA3E980FA8006C02B852CA3F5
:10052A003C893DA3E12CF12C48885988C12CD12C57
:10053A001C8A1D8A1B861C8649855A854071552747
:10054A004AA35BA32B853C854D815E812417350721
:10055A0034F08C899D89892B09F494C09FC032019B
:10056A00EE89FF898085918505974816590688F78F
:10057A002CA13DA1412F502FC501B4010E949A1B05
:10058A000E9409126A8F7B8F8C8F9D8F0E94511B4C
:10059A006A30710514F069E070E08AA19BA1892B89
:1005AA0069F46115710551F4988D973639F4F7FE9F
:1005BA0005C03601EFEF6E1A7E0A38C02C893D89D4
:1005CA00232B99F4F7FE11C03FEF431A530AF101A6
:1005DA00E60DF71D4EE240838B819C8101978B8348
:1005EA009C83E1E0F0E0EC8BFD8BF101E40DF51D5D
:1005FA0036016114710431F020E3219331E0631A6A
:10060A007108F7CFC601840D951D2B813C812C19E9
:10061A003D092C014FEF441A540AF101E80FF91F62
:10062A00605D6083C90101978B839C832A8D3B8D12
:10063A004C8D5D8D6CA17DA1812F902F0E949E1BF8
:10064A00A50194010E944A1B4B015C01B7FAB094C0
:10065A00B7F8B09420E030E040E251E46CA17DA10B
:10066A00812F902F0E949A1B6CA37DA3182F092F0C
:10067A0091E0E91AF108EB85FC853196EB87FC8756
:10068A00630160CFF985F4FF09C0F101E40DF51D9E
:10069A008EE2808392012F5F3F4F2901A101440D11
:1006AA00551D4D835E83FA011082FF85F53609F0E8
:1006BA0063C0E8A1F9A1E20DF31D319710822981E7
:1006CA003A8137FF08C031952195310929833A8348
:1006DA0001E010E002C000E010E0E8A1F9A13197C2
:1006EA00E20DF31D22E030E08AE0E82EF12CCF0182
:1006FA008219930949815A81452B91F089819A81FE
:10070A00B7010E94BE19805D829369837A83215062
:10071A0031094B815C81415051094B835C83E7CF9E
:10072A00121613065CF3FC013197E20DF31D012B3F
:10073A0011F42BE201C02DE220830297B101680F68
:10074A00791F598D252F550F330B215431092A3121
:10075A00310510F025E601C025E4FB0120832B8139
:10076A003C81225031092B833C834816590624F4D4
:10077A008D819E810E942A1B398531FF29C030FD57
:10078A0027C04B815C811416150614F5C1010E941D
:10079A007B1A820D931D9C012219330948895989B4
:1007AA00241735074CF0FC012081EB81FC81E80F0E
:1007BA00F91F20830197EFCF4B815C8160E370E0E2
:1007CA0088899989820D931D0E94FF1A1A8A1B8AA9
:1007DA00C1010E947B1A09851A852A893B89AC01C5
:1007EA00B1018E8D9F8D0E948916A596E2E10C9427
:1007FA009219598553FFB7CC80E2A8CCF5E6FF875A
:08080A00DCCD36E63F87D9CDB5
:10081200A0E2B0E0EFE0F4E00C944919888F998FE0
:10082200FB012C8B20812F8331813A8F828193812E
:100832008A8B9B8B248135812A873B878085918592
:100842008B8F9C8F66807780FA01C080D180E28096
:10085200F38020E030E0A901C701B6010E94901B9D
:1008620087FF06C0F7FAF094F7F8F0948DE204C01F
:100872005F8152FFDDC28BE2F30180832A853B85D3
:10088200215031092C873D8741E050E04D835E8342
:1008920006C08A859B858C879D871D821E82B70133
:1008A200A6017F774115510590E869079FE779070F
:1008B200B9F4AC892A2FAA0F330B215431098D8147
:1008C2009E81860D971D2A31310518F464E476EB7A
:1008D20002C068E476EB0E942A1B88E496EB98C279
:1008E200EC892E2FEE0F330B8D819E81860D971D85
:1008F2004130510560487F4778F0215431092A314F
:10090200310518F46CE476EB02C060E576EB0E94E8
:100912002A1B80E596EB7CC240E3FC014083ED811B
:10092200FE813196E60DF71D4D815E814E5F5F4F70
:100932004D835E83C901815491098E8B9F8B4A97A7
:1009420010F088E701C088E5808320E030E0A9014B
:10095200C701B6010E94901B1B821C821F8E18A227
:10096200882309F469C090E89983AFE3AA832F8DA5
:1009720038A149815A816F8D78A189819A810E941B
:100982004B1B5B018C01A70196010E94951B181657
:100992000CF447C0EB81FC813196EB83FC83AF8E74
:1009A200B8A209831A83E3CF20E030E040E05FE39E
:1009B2006F8D78A189819A810E949E1B20E030E090
:1009C200A9010E94901B811118C020E030E040E88C
:1009D2005AE56F8D78A189819A810E949E1B6F8F43
:1009E20078A389839A8320E030E040E85AE5C70182
:1009F200B6010E949E1B6B017C0120E030E040E0CA
:100A02005FE36F8D78A189819A810E949E1B6F8F0F
:100A120078A389839A832B813C81215031092B83CE
:100A22003C832F8D38A149815A81C701B6010E94AA
:100A3200901B87FDB9CF04C030E839834FE34A8366
:100A42008A899B8997FF02C088E190E0FC01319678
:100A5200E887F9878F8C98A0A980BA801601870150
:100A6200412C512C9401A501B101C8010E949A1B8D
:100A72000E9409126E877F87888B998B9401A5014A
:100A82000E949E1B9B01AC01B101C8010E944A1B3E
:100A92001B018C0120E030E040E85DE3B401C501B8
:100AA2000E949E1B4B015C01FFEF4F1A5F0A2A89CD
:100AB2003B8937FF09C020E030E0A901B101C8013C
:100AC2000E94901B882331F04885598544165506AB
:100AD2004CF202C04886598620E030E040E051E402
:100AE200B401C5010E949E1B4B015C019B01AC013C
:100AF200B101C8010E94901B87FD12C0A50194019B
:100B0200B101C8010E94901B81110DC06E857F85C5
:100B1200888999890E94511B61707727672B19F484
:100B2200812C912C5401A5019401C701B6010E94A8
:100B32004B1B6B017C01DC01CB01BF770097A04806
:100B4200BF4709F4B6CE2C843D8482E0281A3108CE
:100B5200E885F985F195E195F109EC8BFD8B0D8125
:100B62001E81412C512C1C861D86188619862B8DC0
:100B72003C8D255031092D8F3E8F0E871F87ED8DBD
:100B8200FE8D0E171F0708F093C02F8D38A14981E3
:100B92005A81C701B6010E949A1B0E9409124B0199
:100BA2005C010E94511BAB016115710541F4E8859E
:100BB200F985EF2B21F0FFEF4F1A5F0A4FC02C850A
:100BC2003D85232B99F4E885F985EF2B79F00F5FAA
:100BD2001F4FEE85FF85E60DF71D2EE2208331E0E3
:100BE200231A3108E1E0F0E0EC87FD87F301E00F22
:100BF200F11F92012115310529F0A0E3A1932150A3
:100C02003109F8CFF801E40DF51DEE87FF872418AE
:100C120035084A3051051CF4605D7F4F02C0695AA5
:100C22007F4F2E893F892A31310550F4CB018062F2
:100C3200815691094A9720F4CB010E94081BBC01FE
:100C42000E851F850F5F1F4FEE85FF85E60DF71D91
:100C5200608331E0231A3108412C512C2F8D38A1A9
:100C620049815A81C501B4010E949E1B9B01AC01BE
:100C7200C701B6010E944A1B6B017C0120E030E0F3
:100C820040E85DE36F8D78A189819A810E949E1B65
:100C92006F8F78A389839A8348855985415051097A
:100CA200488759878C899D898417950709F065CFF4
:100CB2002C853D85232B49F5F301E00FF11F4114EB
:100CC2005104E1F04A895B8914161506BCF45F8170
:100CD20050FD14C08EE28083F8013196E60DF71DB7
:100CE200C20120E321930197E9F7040D151D0F5F5F
:100CF2001F4F40945094240C351C07C08F8184FFF1
:100D020004C08EE280830F5F1F4FF301E00FF11FDB
:100D1200E887F9871082EB8DFC8D3197E60DF71D80
:100D220010822B813C8137FF09C031952195310911
:100D32002B833C83EE24E394F12C02C0E12CF12CB2
:100D420021E030E08AE0C82ED12CCF018619970924
:100D52004B815C81452B79F08B819C81B6010E948D
:100D6200BE19805D82936B837C832150310941E0FF
:100D7200241A3108EACF2130310571F3FC01319791
:100D8200E60DF71DE114F10411F42BE201C02DE28E
:100D920020830297B301680F791FEE89FF897A9742
:100DA20010F020E701C020E5FB0120830817190796
:100DB20024F4888599850E942A1BFF81F1FF27C0B0
:100DC200F0FD25C022E0221A310812141304FCF4AB
:100DD200C3010E947B1A860D971D9C0126193709B3
:100DE2004D815E81241735073CF0FC012081E20D24
:100DF200F31D20830197F1CFA10160E370E08D81A3
:100E02009E81860D971D0E94FF1A1A861B86C301BA
:100E12000E947B1A0F811A8D2A853B85AC01B30192
:100E2200888D998D0E948916A096E2E10C94921900
:0A0E32005F8153FF2ECD80E21FCD3B
:100E3C00A2E1B0E0E4E2F7E00C944C194C016B0138
:100E4C0019821A828FEF9FEF8B839C831D821E82E7
:100E5C004F83588729873A87A12CB12CD6016D90E6
:100E6C007C90F301EA0DFB1D808181110FC0D6012E
:100E7C00ED93FC938081853209F0D9C13F01BFEF1E
:100E8C006B1A7B0AF6016082718219C0853279F384
:100E9C00B401082E000C990B0E943A154FEFA41ABE
:100EAC00B40ADCCF8C32ACF08D32F9F489819A81A2
:100EBC00816089839A833196D601ED93FC93D60198
:100ECC00ED91FC9180818B3269F789819A818460E4
:100EDC00F0CF803221F489819A818860EACF833205
:100EEC0051F489819A818061E4CF803321F4898126
:100EFC009A818260DECFB701C6010E9425178D83CF
:100F0C009E8397FF0BC029813A81B1E02B2729835F
:100F1C003A839195819591098D839E8389819A81DC
:100F2C0080FF03C08D7F89839A83D601ED91FC915C
:100F3C00119780818E3249F43196ED93FC93B70171
:100F4C00C6010E9425178B839C83C6010E944718FB
:100F5C00582ED601ED91FC918081082E000C990B36
:100F6C000E94321B893609F443C084F4833609F499
:100F7C0008C134F4853209F42DC18136E1F036C153
:100F8C008436B1F188360CF4DFC030C1803709F4F7
:100F9C009AC03CF48E3609F4C2C08F3609F461C095
:100FAC0025C1853709F440C0883709F476C08337EA
:100FBC0009F01CC1F9C0652D70E0A701CE010B969C
:100FCC000E946718892B09F42CC1D601ED91FC9174
:100FDC001197CF0101968D939C932081AE01455FB3
:100FEC005F4FBE016F5F7F4FC4010E94090416C1A1
:100FFC00652D70E0970141E050E0CE010B960E9408
:10100C00B80F892B09F40DC1F601808191810196ED
:10101C0080839183AE01455F5F4FBE016F5F7F4F51
:10102C00C4010E94FE0EFAC0652D70E0970140E0ED
:10103C0050E0CE010B960E94B80F892B09F4F1C039
:10104C00D6018D919C91119701968D939C93AE0135
:10105C00455F5F4FBE016F5F7F4FC4010E949214CA
:10106C00DDC0652D70E0970140E050E0CE010B969D
:10107C000E94B80F892B09F4D4C0F60180819181AC
:10108C00019680839183AE01455F5F4FBE016F5F18
:10109C007F4FC4010E94C213C1C0652D70E097013F
:1010AC0040E050E0CE010B960E94B80F892B09F45A
:1010BC00B8C0D601ED91FC911197CF0101968D939B
:1010CC009C93208122C0D701ED91FC911197CF0107
:1010DC0002968D939C93008111810B871C871D8632
:1010EC001E861F86188A198A1A8AF60180819181B8
:1010FC000196808391838B859C85892B29F420E034
:10110C0030E04BE457EB84C028E7AE01455F5F4FFE
:10111C00BE016F5F7F4FC4010E94F20A7FC0A50120
:10112C00400F511F652D70E09701CE010B960E9468
:10113C00EC12892B09F475C0D6018D919C911197F5
:10114C0001968D939C9373C0652D70E0A701CE0121
:10115C000B960E946718892B09F463C0D601ED9198
:10116C00FC911197CF0101968D939C932081AE0138
:10117C00455F5F4FBE016F5F7F4FC4010E947500DA
:10118C004DC0B0E85B124DC0F60180819181019693
:10119C0080839183D701ED91FC911197CF01029639
:1011AC008D939C93808120C0B0E85B123AC0F6010D
:1011BC0080819181019680839183D701ED91FC917F
:1011CC001197CF0102968D939C934081518120E021
:1011DC0030E01EC0B0E85B1224C0F60120813181E2
:1011EC002F5F3F4F208331838B870DC085E28B8728
:1011FC00D6016D927C9219821A821D821E828FEF0B
:10120C009FEF8B839C8321E030E0AE01455F5F4F05
:10121C00BE016F5F7F4FC4010E9453178A0D9B1D47
:10122C0007C0F60180819181019680839183C5016D
:08123C006296EFE00C94951995
:10124400EF92FF920F931F93CF93DF938C01E62EBF
:101254006EEF6E0D0E946219F82E2E2D30E0F9010A
:101264003297E00FF11F200F311FC0E0D0E0C2958C
:10127400D295D07FDC27C07FDC27919180ED890F48
:101284008A3078F08FEB890F863018F489EC890F57
:1012940008C08FE9890F863018F489EA890F01C0E4
:1012A40080E0C82BE217F30711F7FC16C9F18AE3B3
:1012B40098E99F938F930E9427181F930F9389E4B3
:1012C40098E99F938F930E9427181F92EF928EE4C0
:1012D40098E99F938F930E942718DD27DF93CF937C
:1012E40086E698E99F938F930E9427181F92FF9296
:1012F40088E798E99F938F930E9427188BE998E9D0
:101304009F938F930E94271889EB98E99F938F935B
:101314000E9427188DB79EB746968DBF9EBF59C1B0
:101324009EE0E912B0C0F8013296A8014C5F5F4F0D
:1013340080E090E082959295907F9827807F98270F
:10134400319120ED230F2A3078F02FEB230F263034
:1013540018F429EC230F08C02FE9230F263018F4C2
:1013640029EA230F01C020E0822BE417F50711F7C7
:1013740080930338F801948180ED890F8A3078F0E6
:101384008FEB890F863018F489EC890F08C08FE938
:10139400890F863018F489EA890F01C080E08093B0
:1013A4000438F8013596A801485F5F4F80E090E06B
:1013B40082959295907F9827807F9827319120ED90
:1013C400230F2A3078F02FEB230F263018F429EC62
:1013D400230F08C02FE9230F263018F429EA230F1E
:1013E40001C020E0822B4E175F0711F78093073866
:1013F40090930838F8013896A801455F5F4F80E064
:1014040090E082959295907F9827807F98273191DC
:1014140020ED230F2A3078F02FEB230F263018F419
:1014240029EC230F08C02FE9230F263018F429EAEA
:10143400230F01C020E0822B4E175F0711F7809322
:10144400053890930638F801938580ED890F8A302A
:1014540078F08FEB890F863018F489EC890F08C077
:101464008FE9890F863018F489EA890F01C080E07A
:10147400809309388BED98E99F938F930E942718E6
:101484000F900F90A6C046E050E06DEE78E9C801D9
:101494000E948718892B99F40E943019E7E1F8E338
:1014A40083818F9382818F9384EF98E99F938F93A5
:1014B4000E9427180F900F900F900F908AC046E05B
:1014C40050E061E179E9C8010E948718892B79F518
:1014D4000E940A1AE3E1F8E3228133812B5F3F4F34
:1014E400ADECBCEC0E946C1A969587959695879501
:1014F400969587959F938F93208131812B5F3F4FE2
:101504000E946C1A969587959695879596958795DA
:101514009F938F9388E199E99F938F930E94271853
:101524000F900F900F900F900F900F9052C046E0C5
:1015340050E065E579E9C8010E948718892BC9F450
:10154400E0E0F4E080E18783848184FF09C08CE5D6
:1015540099E99F938F930E9427180F900F9039C099
:101564008CE699E99F938F930E9427180F900F9010
:1015740030C046E050E06DE779E9C8010E94871861
:10158400892B59F40E94131684E899E99F938F9349
:101594000E9427180F900F901CC046E050E06AE9A3
:1015A40079E9C8010E948718892B59F481EA99E9DD
:1015B4009F938F930E942718109202380F900F90D8
:1015C40008C08CEB99E99F938F930E9427180F9082
:1015D4000F90DF91CF911F910F91FF90EF9008959D
:1015E400A4E1B0E0E8EFFAE00C9449198F839887FE
:1015F40069837A834B8B5C8B122FDB011296ED91FE
:10160400FC91139714962D913C9115972D833E834D
:10161400CD90DC90119716962D903C901797F7FD7E
:1016240003C0E894C1F802C0E1E0F0E0C6018071B3
:10163400992789879A87C4FE18C0AB89BC892C91E5
:1016440011963C91119712964D915D916D917C91FB
:10165400159716968C91169717969C910E94111BBC
:1016640021F08D819E81029702C08D819E81960119
:10167400287033272B873C87C3FC0197AB89BC892F
:101684004C9011965C90119712966D907D908D9070
:101694009C9015971696AC9016971796BC90A981B6
:1016A400BA811896ED90FC901997B1E0EB1AF10805
:1016B400D101AE0DBF1D1C928B839C839F01281BFF
:1016C400390B2D873E87C601827099278F87988BA7
:1016D400812F012E000C990BDC01A154B109A98BB7
:1016E400BA8B32E0E316F10430F489859A85892BAC
:1016F40009F04BC06BC09201A301B401C5010E9463
:10170400111B81F1B1E0EB1AF108C2018F70992726
:101714008A30910514F4C09602C0895A9F4FE98912
:10172400FA897A9748F49C012062215631092A31BA
:10173400310510F40E94081BF101EE0DFF1D80839A
:101744002B813C81215031092B833C839201A301DD
:10175400B401C50104E00E94A81829013A014B0113
:101764005C01BFCF8D859E85AB81BC818A0F9B1F99
:10177400181619063CF21A161B060CF0B6CFEF85A4
:10178400F889EF2B09F0BECFB0CFAB89BC892C917F
:1017940011963C91119712964D915D916D917C91AA
:1017A400159716968C91169717969C910E94111B6B
:1017B40069F0F101EE0DFF1D31971083B2E0EB1AD1
:1017C400F108F101EE0DFF1D80E38083EB85FC85BC
:1017D400EF2B41F0F1E0EF1AF108F101EE0DFF1DDE
:1017E40080E28083A981BA8118964D915C91199702
:1017F400415051094E195F09B1016E0D7F1D8601DB
:101804002D813E818F8198850E9489169C01EF81EC
:10181400F8858081918190FF09C0A981BA811296CF
:101824008D919C911397821793070CF4C9016496C8
:06183400E2E10C949219A0
:10183A0047617574612065696C7574EB3A200025FF
:10184A00730D0A004A6F7320696C676973202564F7
:10185A002073696D626F6C69616920006972204347
:10186A0052432079726120253032580D0A004170A6
:10187A00736B6169E869756F74617320414E4349FE
:10188A0049204352432079726120253032580D0A8B
:10189A00004E6574656973696E67617320435243CC
:1018AA002067616C692062FB74692C200D0A006A4A
:1018BA006569206A6973206170736B6169E869758B
:1018CA006F74617320706167616C204845580D0A16
:1018DA000044756F6D656E7973206761757469214F
:1018EA000D0A004D4553413241004D6174756F6ACE
:1018FA00616D6173206B616D706173207972613AF9
:10190A00202564B00D0A00524544543130004D611F
:10191A0074756F6A612074656D7065726174FB72AB
:10192A0061207972613A200A4B616D626172696F56
:10193A003A2025642043B00A4B2E56616E64656EC8
:10194A00733A2025642043B00D0A0050545354457D
:10195A003800506F6D706120C16A756E6774610DD1
:10196A000A00506F6D70612049F06A756E67746184
:10197A000D0A005341564530320044756F6D656E4D
:10198A0079732069F0736175676F7469210D0A00B4
:10199A004558495443360050726F6772616D6176DB
:1019AA00696D61732069F06A756E67746173210DE0
:1019BA000A0042616420636F6D6D616E640D0A00F6
:1019CA004B616D626172696F2074656D702E3A2089
:1019DA0025642F256443B020B1256443B00D0A0065
:1019EA004B6172F0746F2076616E64656E73207459
:1019FA00656D702E3A20256443B00D0A00536B6C56
:101A0A00656E64EB3A200055FE6461727974612058
:101A1A0025642F2564B020B12564B00D0A0055FE57
:101A2A006461726F6D61202564B00D0A00417469AA
:101A3A006461727974612025642F2564B020B12510
:101A4A0064B00D0A004174696461726F6D6120258A
:101A5A0064B00D0A00432E532E20E16A756E677436
:101A6A0061730D0A00432E532E2069F06A756E6762
:091A7A007461730D0A000D0A00ED
:101A84000F931F93CF93DF9380912038811108C067
:101A940085E090E00E94E61981E08093203803C03D
:101AA400813009F0D2C08091430180FFCEC081E033
:101AB40080934301C2E0D8E38A811F928F93898186
:101AC4001F928F9303E118E3F801208131812B5F8A
:101AD4003F4FADECBCEC0E946C1A96958795969599
:101AE4008795969587959F938F938AEC99E99F9311
:101AF4008F930E942718F801228133812B5F3F4F77
:101B0400ADECBCEC0E946C1A9695879596958795DA
:101B1400969587959F938F938AEE99E99F938F93D8
:101B24000E94271887E09AE99F938F930E942718B1
:101B34008DB79EB70E968DBF9EBF8885813029F1E3
:101B440030F0823099F1833009F44EC05DC0E2E098
:101B5400F8E387811F928F93A7E1B8E313968C91E2
:101B640013978F9312968C918F9386818F9385818F
:101B74008F9381E19AE99F938F930E942718EDB781
:101B8400FEB73896EDBFFEBF3FC0E7E1F8E38381BF
:101B94008F9382818F9388E29AE99F938F930E9417
:101BA40027180F900F900F900F902EC0E2E0F8E3EB
:101BB40087811F928F93A7E1B8E313968C911397B3
:101BC4008F9312968C918F9384818F9383818F93BB
:101BD40087E39AE99F938F930E9427188DB79EB746
:101BE40008968DBF9EBF10C0E7E1F8E383818F9311
:101BF40082818F938FE49AE99F938F930E94271891
:101C04000F900F900F900F908091040484FF09C0EF
:101C14008FE59AE99F938F930E9427180F900F9056
:101C240008C08FE69AE99F938F930E9427180F901C
:101C34000F9080E89AE99F938F930E94271810923F
:101C440020380E94ED1A0F900F90DF91CF911F91D1
:041C54000F9108954F
:101C5800CF93DF9320911538309116382B5F3F4F83
:101C6800ADECBCEC0E946C1A969587959695879575
:101C780096958795BC017727E2E0F8E3218130E06B
:101C8800428150E0E901C40FD51F9085913009F4D5
:101C98009AC030F09230F1F0933009F47EC0A7C0BA
:101CA800C617D7079CF480E18093060481E00E9460
:101CB800E31A81E00E94D91A80E099E180930E38F6
:101CC80090930F3883E080930A3891C080E00E9497
:101CD800D91A8DC0C901841B950BAC016817790707
:101CE800BCF580E18093060480911B3890911C38E4
:101CF800A0911D38B0911E380097A105B10561F07B
:101D08000197A109B10980931B3890931C38A093BF
:101D18001D38B0931E386BC080E00E94E31A81E042
:101D28000E94D91A80E099E180930E3890930F3879
:101D380081E080930A3880E593ECA0E0B0E08093DE
:101D48001B3890931C38A0931D38B0931E384FC091
:101D580020911338309114382B5F3F4FADECBCEC19
:101D68000E946C1A9695879596958795969587956E
:101D78009927C817D9073CF480E00E94D91A80E156
:101D88008093060434C0841795078CF580E00E9480
:101D9800D91A80E1809305042AC02091193830911E
:101DA8001A3880910538909106382817390719F0A4
:101DB8000E9486151CC082E080930A3810920E3863
:101DC80010920F3814C02091193830911A38809128
:101DD8000738909108382817390719F00E94861596
:101DE80006C010920A3810920E3810920F38DF9100
:041DF800CF910895EA
:101DFC00ACE0B0E0E4E0FFE00C94491989879A87E5
:101E0C006B837C83FA01DB011296CD90DC901397E7
:101E1C0014968D919C9115978D839E83ED90FC90DB
:101E2C001197E982FA8216960D90BC91A02DAF8382
:101E3C00B887208031804280538064807580868092
:101E4C0097808101B42DA52DF62DE72D8B869C86D0
:101E5C009101A201B301C4010E94111B4CF40E9418
:101E6C005C1A8901B42FA52FF62FE72F8B879C873F
:101E7C00D7FC04C0E894E1F8E982FA829101A2014E
:101E8C00B301C401ED80FE800E94111B1CF08981FE
:101E9C0082FF04C081E0E81AF10805C083FF03C08B
:101EAC0091E0E91AF108CE0101965C018AE0C82E96
:101EBC00D12C2B2F3A2F4F2F5E2F6B857C858B814E
:101ECC009C810E947110FC019101A201B301C4011B
:101EDC000E94111B1CF0898182FF10C03197AF81C9
:101EEC00B885AE0FBF1F9101A201B301C4010E94BE
:101EFC00111B14F08BE20AC08DE208C083FF07C0EF
:101F0C003197AF81B885AE0FBF1F80E28C930981EA
:101F1C001A81AB81BC8118964D915C9119974150F7
:101F2C0051094E1B5F0B6F8178856E0F7F1F2D81C2
:101F3C003E8189859A850E9489169C01E985FA85DE
:101F4C008081918190FF09C0AB81BC8112968D91EB
:101F5C009C911397821793070CF4C9012C96E2E11C
:041F6C000C94921926
:101F70000F931F93CF93DF93FC01D901683871054C
:101F800031F194F461387105B1F12CF460387105C8
:101F900009F478C09FC06238710509F459C06438EB
:101FA000710509F46FC096C0603A710509F448C024
:101FB0002CF46039710509F44BC08CC0603C71058C
:101FC00009F476C0603F710509F472C083C0CD91F9
:101FD000DC911197CE0102968D939C93452B39F09D
:101FE0009881892F880F880B908381835BC08881BB
:101FF0008083118268C0CD91DC911197CE01049647
:102000008D939C93452B99F088819981AA81BB81FE
:10201000AC01BD01770F440B542FBA01808391832B
:10202000A283B383448345834683478328C00881C2
:1020300019812A813B81008311832283338345C028
:10204000CD91DC911197CE0102968D939C9323C084
:10205000CD91DC911197CE0108968D939C93788158
:1020600069815A814B813C812D819E818F81708352
:10207000618352834383348325839683878381E0FE
:1020800090E02AC0CD91DC911197CE0102968D93FC
:102090009C93452BA1F099812881892F880F880B6B
:1020A0002083918382838383848385838683E6CFA1
:1020B000CD91DC911197CE0102968D939C9308816E
:1020C0001981008311831282138214821582168271
:1020D0001782D5CF80E090E0DF91CF911F910F91D3
:0220E000089561
:1020E200A2E1B0E0E7E7F0E10C944919FC010A8BA8
:1020F2001B832C83732E642E552E462E7D83CC8615
:10210200D886AE82BF82268137812A873B87D50156
:102112008D919C9122813381408551851A01B1E0D4
:102122002B1A310837FF02C021E030E0EA85FB8537
:10213200E20DF31D10824701E1E0F0E0E983FA834A
:10214200A9014E195F094D875E87DC01A270BB278A
:10215200AF87B88BB885BB0FBB0BB98B2114310489
:1021620009F450C02A893B814C81572D662D752D6B
:10217200842D9D810E94111BB1F1E1E02E1A3108DC
:10218200FC85F987AF2EB884C988DC2CEC2CFC2C9A
:102192000C2D1C2D2A893B814C81572D662D752DC6
:1021A200842D9D810E94891AC90129839A83EA8517
:1021B200FB85E20DF31D805D808321E0821A910888
:1021C2002A893B814C81572D662D752D842D9D8149
:1021D2000E948B1A2A8B3B834C83752E662E572EB8
:1021E200482E9D83BBCF8D859E85880D991D18161F
:1021F20019061CF2181419042CF44F855889452B22
:1022020009F0BBCF89819A81892B41F4AE81BF81CC
:102212008D919C9111978F7E8D939C93C1016296B3
:06222200E2E10C949219A8
:10222800009BAD36C15A6CF71982B42FD84375EEAE
:1022380032A99F04F3685EC52BB0861DEA7147DC9E
:1022480064FFC952A53E08937DE6D04BBC27118A8E
:1022580056CDFB60970C3AA14FD4E2798E1523B87E
:10226800C85365FE0992A43FD14A7CE7108BBD266E
:10227800FA6157CC3BA0960DE3784ED522B98F145E
:10228800AC37019A6DF6C05BB52E188374EFD9424E
:102298009E0533A85FC4F269871C2AB146DDEB703E
:1022A8000B90A63DCA5167FC1289BF24D3487EE52E
:1022B80039A2940FF86355CE20BB8D16E17A4CD71E
:1022C8006FF4C259AE35039876EDDB40B72C1A810E
:1022D8005DC6F06B9C0731AA44DFE972851E28B3FE
:1022E800C3586EF50299AF34DA4177EC1B80B62DEE
:1022F800F16A5CC730AB9D06E87345DE29B2841FDE
:10230800A73C0A9166FDCB50BE2513887FE4D249CD
:10231800950E38A354CFF9628C1721BA4DD6E07BBD
:10232800E2E0F0E1808181FDFDCF80E090E00E9455
:10233800421B8F3F29F464E180E090E00E94CE1AAE
:1023480080E090E00E94421B80930338E2E0F0E1D5
:10235800808181FDFDCF81E090E00E94421B8F3F8C
:1023680029F461E081E090E00E94CE1A81E090E0DB
:102378000E94421B80930438E2E0F0E1808181FDF5
:10238800FDCF82E090E00E948B1B019631F46AE554
:1023980070E082E090E00E94791B82E090E00E9469
:1023A8008B1B8093073890930838E2E0F0E1808136
:1023B80081FDFDCF84E090E00E948B1B019631F4F3
:1023C80064EB70E084E090E00E94791B84E090E088
:1023D8000E948B1B8093053890930638E2E0F0E169
:1023E800808181FDFDCF86E090E00E94421B8F3FF7
:1023F80029F462E086E090E00E94CE1A86E090E040
:0A2408000E94421B809309380895DA
:102412008F929F92AF92BF92CF92DF92EF92FF92F2
:102422000F931F938B019C011127032F000F111F84
:1024320027FB00F9222733271127A8014F575109FB
:10244200473151050CF045C057FD2DC00FEF1FEF6E
:102452002FE730E004C035952795179507954A95E3
:10246200D2F74801590186229722A822B922892847
:102472008A288B2871F197FF07C0DC01CB01800FFE
:10248200911FA21FB31F02C0DC01CB010095109562
:102492002095309580239123A223B323482F392FEF
:1024A2002A2F5B2F1AC097FF0FC08B019C01000FD0
:1024B200111F221F331F012B022B032B51F040E06F
:1024C20030E020E85FEB09C040E030E020E050E07F
:1024D20004C0462F372F282F592F642F732F822F96
:1024E200952F1F910F91FF90EF90DF90CF90BF90AB
:0824F200AF909F908F900895B8
:1024FA0010C00E945F1B58F00E94581B40F029F43C
:10250A005F3F29F00C94851B51110C94671B0C94A6
:10251A00A91B0E94E51768F39923B1F3552391F398
:10252A00951B550BBB27AA2762177307840738F038
:10253A009F5F5F4F220F331F441FAA1FA9F335D095
:10254A000E2E3AF0E0E832D091505040E695001C49
:10255A00CAF72BD0FE2F29D0660F771F881FBB1F03
:10256A00261737074807AB07B0E809F0BB0B802DE1
:10257A00BF01FF2793585F4F3AF09E3F510578F00D
:10258A000C94851B0C94671B5F3FE4F3983ED4F3CD
:10259A00869577956795B795F7959F5FC9F7880FE1
:1025AA00911D9695879597F90895E1E0660F771F33
:1025BA00881FBB1F621773078407BA0720F0621BC4
:0E25CA00730B840BBA0BEE1F88F7E095089593
:1025D800CF93DF93DC01F90164387105D9F164F414
:1025E8006138710521F16238710509F440C060381D
:1025F800710509F054C02EC060397105C1F184F429
:102608006838710509F04BC0C081D181CE010296AE
:1026180080839183E881F981ED93FC9340833CC0EA
:10262800603A7105B9F0603C7105A1F038C0C0810D
:10263800D181CE01029680839183E881F981ED935F
:10264800FC93052E000C660B770B40835183628345
:10265800738322C0C081D181CE0102968083918389
:10266800E881F981ED93FC934083518315C0C081C3
:10267800D181CE01029680839183E881F981ED931F
:10268800FC9340835183852F880F880B8283838333
:10269800848385838683878381E090E002C080E01D
:0826A80090E0DF91CF9108954D
:1026B0000FC00E94581B38F00E945F1B20F095232A
:1026C00011F00C94851B0C94A91B11240C94671B0E
:1026D0000E94E51770F3959FC1F3950F50E0551FC9
:1026E000629FF001729FBB27F00DB11D639FAA2767
:1026F000F00DB11DAA1F649F6627B00DA11D661FB6
:10270000829F2227B00DA11D621F739FB00DA11DD6
:10271000621F839FA00D611D221F749F3327A00D90
:10272000611D231F849F600D211D822F762F6A2F2C
:1027300011249F5750409AF0F1F088234AF0EE0F91
:10274000FF1FBB1F661F771F881F91505040A9F7BE
:102750009E3F510580F00C94851B0C94671B5F3FD6
:10276000E4F3983ED4F3869577956795B795F795FA
:10277000E7959F5FC1F7FE2B880F911D9695879572
:0427800097F9089528
:10278400A2E0B0E0E8ECF3E10C9449191C014B0120
:10279400FA01DB0112962D913C91139714964D90FA
:1027A4005C9015978D919C91119789839A831696C5
:1027B4006D907C90179737FD03C08D7F89839A8332
:1027C4000081118122813381448155816681778121
:1027D400FE0131965F0188E0C82ED12C7201C4013C
:1027E4000E947110298124FF06C00197F301E80FAC
:1027F400F91F20E32083298123FF06C00197F301F9
:10280400E80FF91F20E2208309811A81D401189668
:102814004D915C91199741505109481B590BB301D3
:10282400680F791F9201C1010E9489169C01F10170
:102834008081918190FF08C0D40112968D919C9162
:102844001397821793070CF4C9012296E2E10C94C2
:022854009219D7
:1028560011C00E94581B38F00E945F1B20F039F40B
:102866009F3F19F426F40C94A91B0EF4E095E7FBA0
:102876000C94851BE92F0E94E51758F3BA176207D7
:1028860073078407950720F079F4A6F50C94661B68
:102896000EF4E0950B2EBA2FA02D0B01B901900175
:1028A6000C01CA01A0011124FF27591B99F0593FB9
:1028B60050F4503E68F11A16F040A22F232F342F01
:1028C6004427585FF3CF469537952795A795F0404F
:1028D6005395C9F77EF41F16BA0B620B730B840B64
:1028E600BAF09150A1F0FF0FBB1F661F771F881F1C
:1028F600C2F70EC0BA0F621F731F841F48F4879574
:1029060077956795B795F7959E3F08F0B0CF939565
:0E291600880F08F09927EE0F97958795089582
:10292400A2E0B0E0E8E9F4E10C9449193C014B0160
:10293400FA01DB0112962D913C91139714964D9058
:102944005C9015978D919C91119789839A83169623
:102954002D903C90179737FD03C08D7F89839A8310
:10296400008111812281338144815581668177817F
:10297400FE0131965F018AE0C82ED12C7201C40198
:102984000E94711009811A81D40118964D915C91AD
:10299400199741505109481B590BB101680F791F10
:1029A4009201C3010E9489169C01F30180819181E7
:1029B40090FF08C0D40112968D919C9113978217B1
:0E29C40093070CF4C9012296E2E10C949219DB
:1029D20088249924F401E401B0E49F93AA279A156C
:1029E2008B049C04ED05FE05CF05D007A10798F4E2
:1029F200AD2FDC2FCF2FFE2FE92D982C892E982F6B
:102A0200872F762F652F542F432F322F2227B8502E
:102A120031F7BF9127C01B2EBF91BB27220F331F57
:102A2200441F551F661F771F881F991F881C991CFA
:102A3200EE1FFF1FCC1FDD1FAA1FBB1F8A149B04A2
:102A4200EC05FD05CE05DF05A007B10748F08A18A1
:102A52009B08EC09FD09CE09DF09A00BB10B21602F
:102A62001A94E1F62EF49401AF01BE01CD01000CDF
:022A72000895C5
:102A74000F931F93CF93DF93DB01109719F48FEF1C
:102A84009FEF3DC02D913C91119730FF25C01696C4
:102A94004D915C91179714962D913C91159742177F
:102AA400530778F41296ED91FC9113978083129654
:102AB4002D913C9113972F5F3F4F12962D933C938A
:102AC400139716962D913C9117972F5F3F4F1696AB
:102AD4002D933C93179713C01C96ED91FC911D9771
:102AE400309769F2EB01092F182F0995892B39F6D4
:102AF4008E819F8101968E839F83812F902FDF91FA
:082B0400CF911F910F9108957C
:102B0C00CF93DF9320910E3830910F38211531057A
:102B1C0031F488E0809305040E94731B39C08091C6
:102B2C001238813091F018F0823021F131C084E0FC
:102B3C0080930504CBE0D8E36D817E8180E090E04A
:102B4C000E94C41881E08F8323C080910B0A80FF00
:102B5C001FC081E080930B0A84E080930604CBE0D5
:102B6C00D8E36D817E8180E090E00E94C41882E001
:102B7C008F830EC080910B0A80FF0AC081E0809386
:102B8C000B0AEBE0F8E321503109238334831782DD
:062B9C00DF91CF910895C6
:102BA200A0E1B0E0E7EDF5E10C945319FB01BA01A5
:102BB200AE014F5F5F4F6A0140E1D6011D924A9517
:102BC200E9F742E051E049835A838B839C83F7FF04
:102BD20009C08FE490E080930038909301388FEF22
:102BE2009FEF1CC0309729F0AF01415051094D832E
:102BF2005E83A9018F017C01C6010E947A19011529
:102C0200110561F04F8158852D813E81421753078E
:102C120008F49A01F701E20FF31F10826096E8E0D0
:042C22000C949C1959
:102C2600E2E0F0E1808181FDFDCF6091033880E034
:102C360090E00E94CE1AE2E0F0E1808181FDFDCFB6
:102C46006091043881E090E00E94CE1AE2E0F0E163
:102C5600808181FDFDCF609107387091083882E050
:102C660090E00E94791BE2E0F0E1808181FDFDCFDA
:102C7600609105387091063884E090E00E94791BD7
:102C8600E2E0F0E1808181FDFDCF6091033886E0CE
:082C960090E00E94CE1A08959F
:102C9E000F931F93CF93DF93CDB7DEB72E97CDBF94
:102CAE00DEBFFE0131968EE0DF011D928A95E9F7B7
:102CBE000E94A21A00E010E016C00E94A21A002381
:102CCE0091F08E3331F4612FCE0101960E942209CC
:102CDE0011C01E3040F4E1E0F0E0EC0FFD1FE10FFB
:102CEE00F11D80831F5F8C3341F70E94A21A01E011
:102CFE0010E0E7CF2E96CDBFDEBFDF91CF911F91B3
:042D0E000F91089584
:102D1200A0E0B0E0EFE8F6E10C944F196C015B0122
:102D22007A01E901480181E08822992400FD03C06B
:102D32004217530750F0A701B501C6010E94E118DE
:102D4200EC16FD0610F0C70117C08E010E191F09FF
:102D52000115110541F0B60180E290E00E943A159A
:102D620001501109F5CF8114910429F4A701B5018D
:102D7200C6010E94E118CE01CDB7DEB7ECE00C949B
:022D820098199E
:102D8400A2E8B0E0E8ECF6E10C944F195C014A01CA
:102D940069837A83C12CD12CE981FA8180818823CB
:102DA400E9F07401860120E830E0AE014D5F5F4F29
:102DB400BE016F5F7F4FC5010E941E078C0D9D1DD4
:102DC4008C159D054CF48FE490E08093003890932B
:102DD40001388FEF9FEF03C06C01DECFC601CE57E1
:082DE400DF4FECE00C9498199C
:102DEC000E94ED1788F09F5798F0B92F9927B7518B
:102DFC00B0F0E1F0660F771F881F991F1AF0BA9593
:102E0C00C9F714C0B13091F00E94661BB1E008956F
:102E1C000C94661B672F782F8827B85F39F0B93F61
:102E2C00CCF3869577956795B395D9F73EF4909545
:0E2E3C008095709561957F4F8F4F9F4F089541
:102E4A00DC01ED91FC91119780818A3221F080E0BA
:102E5A0090E03AE00EC03196ED93FC93DB01ED91E0
:102E6A00FC911197CF0102968D939C938081918159
:102E7A000895ED91FC911197208120532A3068F42E
:102E8A00389FA001399F500D1124CA01820F911D4C
:0C2E9A003196ED93FC931197ECCF089556
:102EA600A0E0B0E0E9E5F7E10C9451197C01FB01E3
:102EB600EA01C901A280B380C480D5800081118156
:102EC600209711F4C4E4D7EB009719F4CE010E94C1
:102ED6007B1AB7FC04C0A816B90608F4C50196010A
:102EE600AC01BE01C7010E948916CDB7DEB7EAE084
:042EF6000C949A1985
:102EFA00990F0008550FAA0BE0E8FEEF1616170601
:102F0A00E807F907C0F012161306E407F50798F068
:102F1A00621B730B840B950B39F40A2661F0232B81
:102F2A00242B252B21F408950A2609F4A140A695FD
:082F3A008FEF811D811D089538
:102F4200EF92FF920F931F93CF93DF938C017C013B
:102F5200C0E0D0E006C0F70181917F010E941A1BF8
:102F62002196F80101900020E9F73197E01BF10B5F
:102F7200CE17DF0780F3DF91CF911F910F91FF9062
:042F8200EF9008952F
:102F8600A1E21A2EAA1BBB1BFD010DC0AA1FBB1F67
:102F9600EE1FFF1FA217B307E407F50720F0A21BD9
:102FA600B30BE40BF50B661F771F881F991F1A9446
:102FB60069F760957095809590959B01AC01BD0170
:042FC600CF0108959A
:102FCA0057FD9058440F551F59F05F3F71F04795D0
:102FDA00880F97FB991F61F09F3F79F087950895B5
:102FEA00121613061406551FF2CF4695F1DF08C0D4
:102FFA00161617061806991FF1CF869571056105F1
:04300A000894089589
:10300E00873021F490EA9093020603C097EA9093DA
:10301E000206E0E0F6E08487828581608287868101
:10302E0080FDFDCFE0E0F6E0858180FFFDCFE0E0A2
:10303E00F6E081E0858380899189A289B38908951C
:10304E00CF93DF93CDB7DEB7C054D109CDBFDEBF6E
:10305E009E012B5B3F4FF901419151919F0160E41D
:10306E0070E0CE0101960E94D115CE0101960E940C
:10307E00A117C05CDF4FCDBFDEBFDF91CF910895AA
:10308E00CF93DF93EC0190E0E92FF0E0EE0FFF1FFE
:10309E00EA57FA448081811102C081810EC0A88155
:1030AE00B9812C91821305C091811196A883B983A1
:1030BE0001C09F5F9B3040F3892FDF91CF91089520
:1030CE00FA0160387105CCF0623871051CF0633876
:1030DE00710599F4A081B1819D012C5F3F4F208332
:1030EE0031834D915D916D917C91FC0140835183B3
:1030FE006283738381E090E0089580E090E008950C
:10310E00CF93DF9341155105A9F0DC01FB01EF01CF
:10311E008D91882351F09191992339F041305105C9
:10312E0021F041505109891791F390E02881821BBB
:0E313E00910902C080E090E0DF91CF910895EA
:10314C0097FB10F8169400080F93083098F008506D
:10315C00232F342F452F562F672F782F892F902D03
:10316C00F4CF0594979587957795679557954795DF
:0C317C00379527950A95AAF70F91089542
:10318800CF93DF939B01AC01C0E0DAE0188260EDD9
:1031980072E183E190E00E944C1A20E432E44FE0AF
:1031A80050E00E94C3172EA33FA318A219A288813A
:0A31B80081608883DF91CF910895B4
:1031C200A0E0B0E0E7EEF8E10C9453196C01EB01DA
:1031D2008A017B01E40EF51ECE15DF0541F08991CF
:1031E200B601082E000C990B0E943A15F5CFC801C2
:0A31F200CDB7DEB7E8E00C949C199D
:1031FC000E942C1A0E9417190E94971A0E94F91902
:10320C000E946D1B81E00E94F61A0E94941180911D
:10321C00280481FD03C081E0809302380E943C1A8F
:02322C00FDCFD4
:10322E00A0E2B4E08AE012968C931297E0E0F4E00C
:10323E0080EE828384E0858B868B878B88E0519627
:10324E008C9351979EE1918395E011969C93858383
:02325E000895D1
:10326000CF93DF9387E00E940718C7E1D8E38883F4
:1032700099839C01A8E6B1E00E946C1A2FEF3FE011
:1032800040E050E00E94C3172A833B83DF91CF9137
:0232900008959F
:103292002F923F924F925F926F927F928F929F9264
:1032A200AF92BF92CF92DF92EF92FF920F931F9352
:1032B200CF93DF93CDB7DEB7CA1BDB0BCDBFDEBF2B
:0232C20009946D
:1032C4006623A1F0DC016150262F30E02F5F3F4FD1
:1032D400280F391F8FEFED918E27E82FF0E0E85D7E
:1032E400FD458081A217B307B1F708958FEF0895C4
:1032F400A2E0B0E0E0E8F9E10C9457198C014983AD
:103304005A83AE014F5F5F4F0E94C216F8012081BD
:1033140024FF02C08FEF9FEF2296E4E00C94A019E3
:103324002A88398848885F846E847D848C849B8451
:10333400AA84B984C884DF80EE80FD800C811B815F
:10334400AA81B981CE0FD11DCDBFDEBFED01089595
:10335400262FAF93BF93E0E0F0E1328131FDFDCF42
:10336400DC01A050BC4E2C933DE934BF23E0208304
:083374000196BF91AF9108958D
:10337C0097FB072E16F4009407D077FD09D00E9416
:10338C00D21907FC05D03EF4909581959F4F089576
:08339C00709561957F4F0895C3
:1033A400AA1BBB1B51E107C0AA1FBB1FA617B70767
:1033B40010F0A61BB70B881F991F5A95A9F7809583
:0833C4009095BC01CD010895B4
:1033CC009C01E0E4F1E091819111FDCFE0E4F1E0AA
:1033DC0081E08783C90101978287938710861186C4
:0633EC0081E580830895D5
:1033F200E0E0F6E080E2808383E08183108611863C
:1034020080E18287808181608083868180FDFDCF1B
:0234120008951B
:10341400CF93DF9386E00E940718C3E1D8E3888343
:10342400998385E00E9407188A839B83DF91CF915B
:023434000895F9
:10343600092E0394000C11F4882352F0BB0F40F4BC
:10344600BF2B11F460FF04C06F5F7F4F8F4F9F4FFC
:023456000895D7
:1034580060E080E690E00E947F1B60E081E690E0FB
:103468000E947F1BE0E6F0E0838180FDFDCF089598
:1034780080910238813019F40E944F1608950E94F5
:103488002C0E0E9430190E940A1A0E94420D0895BB
:10349800DB018F939F930E94AD1ABF91AF91A29FBA
:1034A800800D911DA39F900DB29F900D112408953A
:1034B800609570958095909530954095509521959B
:1034C8003F4F4F4F5F4F6F4F7F4F8F4F9F4F089525
:1034D800A29FB001B39FC001A39F700D811D11244D
:0E34E800911DB29F700D811D1124911D08953C
:1034F600FC01AF014F5F5F4F2081222311F0FA01DB
:0C350600F8CF9F01281B390BC901089564
:10351200689401C0E8948F929F92CF93DF930E94A8
:0C352200E914DF91CF919F908F900895E5
:10352E00E0E0F8E086EB92E08087918782EC86837C
:06353E0083E0878308957D
:1035440080E880930408E0E0F8E084818823ECF7C5
:06355400809100080895BB
:10355A000E946C1AA59F900DB49F900DA49F800D98
:06356A00911D11240895DB
:10357000EC010E94B11B0E94B01BCE010E94B21B45
:06358000CE010E94AE1B0B
:1035860068076C094C836A9074A07AC000806888CA
:0635960000846C8200813C
:10359C00262F0E94461B0080021619F00E94AB19C0
:0635AC000197019708954C
:1035B200813021F488E080930604089588E08093A6
:0435C200050408955F
:1035C600811104C082E080930504089582E080930F
:0435D600060408954A
:1035DA00E0E4F1E080818E7F808381818111FDCFDB
:0235EA00089542
:1035EC00813019F480932504089581E0809326049A
:0235FC00089530
:1035FE00FC01480F591FE417F50711F06193FBCF3B
:02360E0008951D
:103610009C01215631092A31310510F48F75992703
:0236200008950B
:103622002115310541055105610571058105910598
:023632000895F9
:10363400E0E0F8E0948195FFFDCF809302080895BF
:10364400494E4600696E66004E414E006E616E0042
:10365400FC01DB012D91BD0121932111FACF0895C5
:103664009C01215431092A31310508F480620895FE
:10367400494E4600696E66004E414E006E616E0012
:1036840003D0808199270895FC01E050FC4E0895F1
:0E3694005058BB27AA270E942B140C941B1A17
:0E36A2000E94F6166894B1110C94671B0895EF
:0E36B00000240A941616170618060906089537
:0E36BE0000240A941216130614060506089539
:0E36CC00E894BB2766277727CB0197F908956E
:0C36DA00E0E0FAE0118288E080830895AF
:0C36E600E0E0FAE080818E7F8083089590
:0C36F2000196272F0E94CF1A0C94CE1ACC
:0C36FE00DC0128ED209334006C9308954B
:0C370A0097F99F6780E870E060E0089588
:0A3716000E94461B808191810895F6
:0A3720000E947D1708F481E008956F
:0A372A000E947D1708F48FEF089548
:083734000E947D120C941B1A87
:08373C000E9458130C941B1AA3
:07374400286E756C6C290072
:06374B00286E696C2900E4
:063752009FEF80EC0895DA
:043758000C940000CD
:04375C000E94730054
:023760000895CA
:023762000895C8
:023764000895C6
:09376600001901B4005A00020030
:08376F0000000000001E000034
:0437770050C300003B
:00000001FF
