:100000000C9442000C94D0010C94D0010C94D001BB
:100010000C94D0010C94D0010C94D0010C94D0011C
:100020000C94D0010C94D0010C94D0010C94D0010C
:100030000C94D0010C94D0010C94D0010C94D001FC
:100040000C94D0010C94D0010C94D0010C94D001EC
:100050000C94D0010C94D0010C94D0010C94D001DC
:100060000C94D0010C94D0010C94D0010C94D001CC
:100070000C94D0010C94D001380038080003AE383D
:100080000838108011241FBECFEFCDBFDFE3DEBFE5
:10009000E8E7F0E040E017C0B591A59135912591D2
:1000A000059107FD0CC095918591EF01F92FE82F7F
:1000B00005900D92A217B307D9F7FE0104C01D9257
:1000C000A217B307E1F7E438F40731F70E941B01E8
:0800D0000C94A201F894FFCF8B
:1000D800CF93DF938091033890910438892B31F4C2
:1000E80088E0809305040E94C1013AC080910738D6
:1000F800813091F018F0823021F132C084E0809391
:100108000504C0E0D8E36D817E8180E090E00E9424
:10011800B70081E08F8324C08091430180FF20C015
:1001280081E08093430184E080930604C0E0D8E333
:100138006D817E8180E090E00E94B70082E08F832D
:100148000FC08091430180FF0BC081E08093430181
:10015800E0E0F8E383819481019783839483178295
:06016800DF91CF91089524
:10016E00CF93DF93E0E4F1E021812111FDCFC0E4D4
:10017E00D1E01F82052E5FE0660F771F881F991F43
:10018E005A95D1F7502D20E432E44FE050E00E9412
:10019E00D9002A873B871886198681E08883DF91EC
:0401AE00CF91089550
:1001B200A1E21A2EAA1BBB1BFD010DC0AA1FBB1F69
:1001C200EE1FFF1FA217B307E407F50720F0A21BDB
:1001D200B30BE40BF50B661F771F881F991F1A9448
:1001E20069F760957095809590959B01AC01BD0172
:0401F200CF0108959C
:1001F600873021F490EA9093020603C097EA909321
:100206000206E0E0F6E08487828581608287868147
:1002160080FDFDCFE0E0F6E0858180FFFDCFE0E0E8
:10022600F6E081E0858380899189A289B389089562
:100236000E9483010E944D010E94610181E00E949B
:10024600AD0181E00E94B70180E099E18093033817
:10025600909304380E946C000E9434010E9472013F
:02026600F9CFCE
:10026800CF93DF9387E00E94FB00CCE0D8E388833C
:1002780099839C01A8E6B1E00E9493012FEF3FE02B
:1002880040E050E00E94D9002A833B83DF91CF9160
:020298000895C7
:10029A00A0E2B4E08AE012968C931297E0E0F4E0D0
:1002AA0080EE828384E0858B868B878B8EE18183C7
:0802BA0085E011968C93089574
:1002C200E0E0F6E080E2808383E08183108611869D
:1002D20080E18287808181608083868180FDFDCF7D
:0202E20008957D
:1002E400CF93DF9386E00E94FB00C8E0D8E38883C5
:1002F400998385E00E94FB008A839B83DF91CF91E1
:0203040008955A
:1003060060E080E690E00E94CA0160E081E690E04D
:100316000E94CA01E0E6F0E0838180FDFDCF0895EA
:10032600A29FB001B39FC001A39F700D811D112430
:0E033600911DB29F700D811D1124911D08951F
:10034400EC010E94D5010E94D401CE010E94D60185
:06035400CE010E94D2015F
:10035A00813021F488E080930604089588E0809330
:04036A0005040895E9
:10036E00811104C082E080930504089582E0809399
:04037E0006040895D4
:10038200E0E4F1E080818E7F808381818111FDCF65
:020392000895CC
:0C039400DC0128ED209334006C930895E8
:0403A0000C940000B9
:0403A4000E946A0049
:0203A8000895B6
:0203AA000895B4
:0203AC000895B2
:0803AE0000000000001F000028
:00000001FF
