:100000000C943C000C9482020C9482020C948202A8
:100010000C9482020C9482020C9482020C94820250
:100020000C9482020C9482020C9482020C94820240
:100030000C9482020C9482020C9482020C94820230
:100040000C9482020C9482020C9482020C94820220
:100050000C9482020C9482020C9482020C94820210
:100060000C9482020C9482020C9482020C94820200
:100070000C9482020C94820211241FBECFEFCDBFDC
:10008000DFE3DEBFE8E7F0E040E017C0B591A591FF
:1000900035912591059107FD0CC095918591EF0152
:1000A000F92FE82F05900D92A217B307D9F7FE019B
:1000B00004C01D92A217B307E1F7E837F40731F740
:0C00C0000E941E020C944402F894FFCF32
:1000CC000FC00E94600238F00E94670220F0952356
:1000DC0011F00C9475020C947F0211240C946F0295
:1000EC000E94FC0170F3959FC1F3950F50E0551FD2
:1000FC00629FF001729FBB27F00DB11D639FAA2771
:10010C00F00DB11DAA1F649F6627B00DA11D661FBF
:10011C00829F2227B00DA11D621F739FB00DA11DE0
:10012C00621F839FA00D611D221F749F3327A00D9A
:10013C00611D231F849F600D211D822F762F6A2F36
:10014C0011249F5750409AF0F1F088234AF0EE0F9B
:10015C00FF1FBB1F661F771F881F91505040A9F7C8
:10016C009E3F510580F00C9475020C946F025F3F1A
:10017C00E4F3983ED4F3869577956795B795F79504
:10018C00E7959F5FC1F7FE2B880F911D969587957C
:04019C0097F9089532
:1001A00011C00E94600238F00E94670220F039F40A
:1001B0009F3F19F426F40C947F020EF4E095E7FBC0
:1001C0000C947502E92F0E94FC0158F3BA176207DC
:1001D00073078407950720F079F4A6F50C946E0256
:1001E0000EF4E0950B2EBA2FA02D0B01B901900152
:1001F0000C01CA01A0011124FF27591B99F0593F96
:1002000050F4503E68F11A16F040A22F232F342FDD
:100210004427585FF3CF469537952795A795F0402B
:100220005395C9F77EF41F16BA0B620B730B840B40
:10023000BAF09150A1F0FF0FBB1F661F771F881FF8
:10024000C2F70EC0BA0F621F731F841F48F4879550
:1002500077956795B795F7959E3F08F0B0CF939542
:0E026000880F08F09927EE0F9795879508955F
:10026E00E89409C097FB3EF4909580957095619542
:10027E007F4F8F4F9F4F9923A9F0F92F96E9BB27F8
:10028E009395F695879577956795B795F111F8CF74
:10029E00FAF4BB0F11F460FF1BC06F5F7F4F8F4FDF
:1002AE009F4F16C0882311F096E911C0772321F0D5
:1002BE009EE8872F762F05C0662371F096E8862F6D
:1002CE0070E060E02AF09A95660F771F881FDAF7C4
:0A02DE00880F9695879597F908950B
:1002E8000E94040288F09F5798F0B92F9927B751B8
:1002F800B0F0E1F0660F771F881F991F1AF0BA95C2
:10030800C9F714C0B13091F00E946E02B1E00895AF
:100318000C946E02672F782F8827B85F39F0B93FA1
:10032800CCF3869577956795B395D9F73EF4909574
:0E0338008095709561957F4F8F4F9F4F089570
:100346001F93CF93DF93BC01E0E4F1E0918191111B
:10035600FDCFC0E4D1E011E01F8380E090E00E9471
:1003660037012FE632E143E85FE30E947B020E94F9
:10037600740180E090E00E94370120E030E040E028
:100386005FE30E945A020E9474016A877B8718867F
:0C03960019861883DF91CF911F91089504
:1003A200A0E2B4E08AE012968C931297E0E0F4E0C7
:1003B20080EE82838589887F858B85898460858BA1
:1003C2008589877F858B8689887F868B86898460ED
:1003D200868B8689877F868B8789887F878B8789AB
:1003E2008460878B8789877F878B8EE1818385E015
:0603F20011968C930895A2
:1003F80057FD9058440F551F59F05F3F71F04795CE
:10040800880F97FB991F61F09F3F79F087950895B2
:10041800121613061406551FF2CF4695F1DF08C0D1
:10042800161617061806991FF1CF869571056105EE
:040438000894089587
:10043C000E94D10180E00E944F0280E197E20E946D
:10044C00A30181E00E944F02C0E4D1E08B8180FFC8
:0A045C00FDCF80E00E944F02F9CFAF
:10046600092E0394000C11F4882352F0BB0F40F4BC
:10047600BF2B11F460FF04C06F5F7F4F8F4F9F4FFC
:020486000895D7
:10048800EC010E9487020E948602CE010E94880227
:06049800CE010E94840267
:10049E00882321F088E080930604089588E08093F5
:0404AE0005040895A4
:0E04B2005058BB27AA270E94D0000C9433029A
:0E04C00000240A941616170618060906089559
:0E04CE0000240A94121613061406050608955B
:0E04DC00E894BB2766277727CB0197F9089590
:0C04EA0097F99F6780E870E060E00895DB
:0804F6000E9466000C94330221
:0604FE009FEF80EC089561
:040504000C94000053
:040508000E946400E9
:02050C00089550
:02050E0008954E
:0205100008954C
:00000001FF
