:100000000C944B000C94EB190C94EB190C94EB1919
:100010000C94EB190C94EB190C94EB190C94EB1950
:100020000C94EB190C94EB190C94EB190C94EB1940
:100030000C94EB190C94EB190C94EB190C94EB1930
:100040000C94EB190C94EB190C94EB190C94EB1920
:100050000C94EB190C94EB190C94EB190C94EB1910
:100060000C94EB190C94EB190C94EB190C94EB1900
:100070000C94EB190C94EB193800380280380238D4
:10008000130033E43813381B80381B381F0033F556
:10009000381F3821800011241FBECFEFCDBFDFE312
:1000A000DEBFE8E7F0E040E017C0B591A5913591DB
:1000B0002591059107FD0CC095918591EF01F92FD0
:1000C000E82F05900D92A217B307D9F7FE0104C0DF
:1000D0001D92A217B307E1F7E539F40731F70E9443
:0A00E00004180C941519F894FFCFD2
:1000EA00A5E2B0E0EBE7F0E00C94A3178E8F9F8FA8
:1000FA006E8B7F8B298FFB010190F081E02DE987C0
:10010A00FA87FB0102811381248135812A8B3B8B7B
:10011A008085918588A399A326803780FA018080FB
:10012A009180A280B38020E030E0A901C501B4012A
:10013A000E94CF1987FF06C0B7FAB094B7F8B094F7
:10014A008DE204C0598552FF54C38BE2F1018083CA
:10015A002A893B89215031092B833C8341E050E0B5
:10016A00488B598B06C08A899B898B839C83188A02
:10017A00198AD501C401BF770097E0E8AE07EFE717
:10018A00BE0799F4F98D2F2FFF0F330B2154310934
:10019A0088899989820D931D2A31310518F468E1FD
:1001AA0073EB19C06CE173EB16C00197A048BF4707
:1001BA00A8F0498D242F440F330B21543109888923
:1001CA009989820D931D2A31310518F460E273EB87
:1001DA0002C064E273EB0E947C19FAC220E030E0AC
:1001EA00A901C501B4010E94CF19C12CD12C20E864
:1001FA00E22E2FE3F22E19821A82882309F48CC088
:10020A008D829E82AF82B88620E030E040E251E4DF
:10021A00C701B6010E94DD192B013C01D501C401B9
:10022A0084199509A609B709B7FF07C0B095A09523
:10023A00909581959F4FAF4FBF4F0297A105B1058A
:10024A0044F489819A81019689839A8373016201B0
:10025A00DBCFA5019401C301B2010E94CF1987FD2A
:10026A00F0CF8D819E81AF81B8858C199D09AE0929
:10027A00BF090196A11DB11D0397A105B10508F497
:10028A0049C01D821E82A5019401C701B6010E94C0
:10029A00D41918160CF040C0E981FA81E43DFE4FEA
:1002AA00E4F44D815E81452BC1F420E030E040E862
:1002BA005AE5C501B4010E94DD194B015C0120E039
:1002CA0030E040E85AE5C701B6010E94DD196B012A
:1002DA007C0181E090E08D839E8320E030E040E263
:1002EA0051E4C701B6010E94D9196B017C01E98169
:1002FA00FA813197E983FA83D501C4018C199D09E2
:10030A00AE09BF090196A11DB11D0397A105B1054B
:10031A0008F0B9CF46015701F98D8F2FFF0F990BBE
:10032A000E948419888F17FD03C00D831E8304C0A1
:10033A0026E030E02D833E83388D373639F4012BA1
:10034A0041F441E050E04D835E8303C0288D2F873E
:10035A0014C089819A818C3F9F4F0CF44FC28981C6
:10036A009A81ED81FE818E179F070CF047C2298181
:10037A003A8137FF46C236E63F874D815E814F5F3D
:10038A005F4F4D835E835F855636B9F489819A81C2
:10039A0097FF08C0C12CD12C90E8E92E9FE3F92ED3
:1003AA0019821A82988D973641F0ED81FE81298152
:1003BA003A81E20FF31FED83FE831C2DDCA2EAA231
:1003CA000F2D8B869C86AD86BE861C8A1D8A8C89DB
:1003DA009D89ED81FE818E179F07DCF5212F3CA1B7
:1003EA004AA1502F6B857C858D859E850E94D919DF
:1003FA000E94BF102B013C010E949B196A8FA30126
:10040A009201612F7CA18AA1902F0E94DD192B8570
:10041A003C854D855E850E9494199B01AC0150581C
:10042A002B873C874D875E8720E030E040E251E42D
:10043A00612F7CA18AA1902F0E94D919162F7CA323
:10044A008AA3092F4C895D894F5F5F4F4C8B5D8B67
:10045A00BECF20E030E040EA50E4612F7CA18AA1BF
:10046A00902F0E94DD192B013C019B01AC016B8589
:10047A007C858D859E850E94CF1987FD0DC0A301BD
:10048A0092016B857C858D859E850E94CF1981118D
:10049A0006C0FA8DF0FD03C0412C512C3201A50192
:1004AA009401C301B2010E9495194B015C0120E03D
:1004BA0030E040E251E4C701B6010E94DD196B87C2
:1004CA007C8B182F092F9B01482F592FC501B40186
:1004DA000E94D41987FD14C029813A812F5F3F4FAA
:1004EA0029833A833F85363679F44D815E814F5FA1
:1004FA005F4F4D835E835B855CA38C898DA30BC0A4
:10050A00CB86DC8A1E2D0F2D9F85953639F0EB851B
:10051A00ECA3FC89FDA3E980FA8006C02B852CA3F5
:10052A003C893DA3E12CF12C48885988C12CD12C57
:10053A001C8A1D8A1B861C8649855A854071552747
:10054A004AA35BA32B853C854D815E812417350721
:10055A0034F08C899D89892B09F494C09FC032019B
:10056A00EE89FF898085918505974816590688F78F
:10057A002CA13DA1412F502FC501B4010E94D919C8
:10058A000E94BF106A8F7B8F8C8F9D8F0E949B1950
:10059A006A30710514F069E070E08AA19BA1892B89
:1005AA0069F46115710551F4988D973639F4F7FE9F
:1005BA0005C03601EFEF6E1A7E0A38C02C893D89D4
:1005CA00232B99F4F7FE11C03FEF431A530AF101A6
:1005DA00E60DF71D4EE240838B819C8101978B8348
:1005EA009C83E1E0F0E0EC8BFD8BF101E40DF51D5D
:1005FA0036016114710431F020E3219331E0631A6A
:10060A007108F7CFC601840D951D2B813C812C19E9
:10061A003D092C014FEF441A540AF101E80FF91F62
:10062A00605D6083C90101978B839C832A8D3B8D12
:10063A004C8D5D8D6CA17DA1812F902F0E94DD19BB
:10064A00A50194010E9494194B015C01B7FAB09478
:10065A00B7F8B09420E030E040E251E46CA17DA10B
:10066A00812F902F0E94D9196CA37DA3182F092FCF
:10067A0091E0E91AF108EB85FC853196EB87FC8756
:10068A00630160CFF985F4FF09C0F101E40DF51D9E
:10069A008EE2808392012F5F3F4F2901A101440D11
:1006AA00551D4D835E83FA011082FF85F53609F0E8
:1006BA0063C0E8A1F9A1E20DF31D319710822981E7
:1006CA003A8137FF08C031952195310929833A8348
:1006DA0001E010E002C000E010E0E8A1F9A13197C2
:1006EA00E20DF31D22E030E08AE0E82EF12CCF0182
:1006FA008219930949815A81452B91F089819A81FE
:10070A00B7010E941B18805D829369837A83215006
:10071A0031094B815C81415051094B835C83E7CF9E
:10072A00121613065CF3FC013197E20DF31D012B3F
:10073A0011F42BE201C02DE220830297B101680F68
:10074A00791F598D252F550F330B215431092A3121
:10075A00310510F025E601C025E4FB0120832B8139
:10076A003C81225031092B833C834816590624F4D4
:10077A008D819E810E947C19398531FF29C030FD07
:10078A0027C04B815C811416150614F5C1010E941D
:10079A00D818820D931D9C01221933094889598959
:1007AA00241735074CF0FC012081EB81FC81E80F0E
:1007BA00F91F20830197EFCF4B815C8160E370E0E2
:1007CA0088899989820D931D0E9451191A8A1B8A58
:1007DA00C1010E94D81809851A852A893B89AC016A
:1007EA00B1018E8D9F8D0E94C914A596E2E10C94E9
:1007FA00EC17598553FFB7CC80E2A8CCF5E6FF8702
:08080A00DCCD36E63F87D9CDB5
:10081200A0E2B0E0EFE0F4E00C94A317888F998F88
:10082200FB012C8B20812F8331813A8F828193812E
:100832008A8B9B8B248135812A873B878085918592
:100842008B8F9C8F66807780FA01C080D180E28096
:10085200F38020E030E0A901C701B6010E94CF1960
:1008620087FF06C0F7FAF094F7F8F0948DE204C01F
:100872005F8152FFDDC28BE2F30180832A853B85D3
:10088200215031092C873D8741E050E04D835E8342
:1008920006C08A859B858C879D871D821E82B70133
:1008A200A6017F774115510590E869079FE779070F
:1008B200B9F4AC892A2FAA0F330B215431098D8147
:1008C2009E81860D971D2A31310518F468EE72EB70
:1008D20002C06CEE72EB0E947C198CEE92EB98C215
:1008E200EC892E2FEE0F330B8D819E81860D971D85
:1008F2004130510560487F4778F0215431092A314F
:10090200310518F460EF72EB02C064EF72EB0E94E3
:100912007C1984EF92EB7CC240E3FC014083ED81C1
:10092200FE813196E60DF71D4D815E814E5F5F4F70
:100932004D835E83C901815491098E8B9F8B4A97A7
:1009420010F088E701C088E5808320E030E0A9014B
:10095200C701B6010E94CF191B821C821F8E18A2EA
:10096200882309F469C090E89983AFE3AA832F8DA5
:1009720038A149815A816F8D78A189819A810E941B
:1009820095195B018C01A70196010E94D4191816D2
:100992000CF447C0EB81FC813196EB83FC83AF8E74
:1009A200B8A209831A83E3CF20E030E040E05FE39E
:1009B2006F8D78A189819A810E94DD1920E030E053
:1009C200A9010E94CF19811118C020E030E040E84F
:1009D2005AE56F8D78A189819A810E94DD196F8F06
:1009E20078A389839A8320E030E040E85AE5C70182
:1009F200B6010E94DD196B017C0120E030E040E08D
:100A02005FE36F8D78A189819A810E94DD196F8FD2
:100A120078A389839A832B813C81215031092B83CE
:100A22003C832F8D38A149815A81C701B6010E94AA
:100A3200CF1987FDB9CF04C030E839834FE34A8329
:100A42008A899B8997FF02C088E190E0FC01319678
:100A5200E887F9878F8C98A0A980BA801601870150
:100A6200412C512C9401A501B101C8010E94D91950
:100A72000E94BF106E877F87888B998B9401A50196
:100A82000E94DD199B01AC01B101C8010E949419B9
:100A92001B018C0120E030E040E85DE3B401C501B8
:100AA2000E94DD194B015C01FFEF4F1A5F0A2A8990
:100AB2003B8937FF09C020E030E0A901B101C8013C
:100AC2000E94CF19882331F048855985441655066E
:100AD2004CF202C04886598620E030E040E051E402
:100AE200B401C5010E94DD194B015C019B01AC01FF
:100AF200B101C8010E94CF1987FD12C0A50194015E
:100B0200B101C8010E94CF1981110DC06E857F8588
:100B1200888999890E949B1961707727672B19F43C
:100B2200812C912C5401A5019401C701B6010E94A8
:100B320095196B017C01DC01CB01BF770097A048BE
:100B4200BF4709F4B6CE2C843D8482E0281A3108CE
:100B5200E885F985F195E195F109EC8BFD8B0D8125
:100B62001E81412C512C1C861D86188619862B8DC0
:100B72003C8D255031092D8F3E8F0E871F87ED8DBD
:100B8200FE8D0E171F0708F093C02F8D38A14981E3
:100B92005A81C701B6010E94D9190E94BF104B01A8
:100BA2005C010E949B19AB016115710541F4E88556
:100BB200F985EF2B21F0FFEF4F1A5F0A4FC02C850A
:100BC2003D85232B99F4E885F985EF2B79F00F5FAA
:100BD2001F4FEE85FF85E60DF71D2EE2208331E0E3
:100BE200231A3108E1E0F0E0EC87FD87F301E00F22
:100BF200F11F92012115310529F0A0E3A1932150A3
:100C02003109F8CFF801E40DF51DEE87FF872418AE
:100C120035084A3051051CF4605D7F4F02C0695AA5
:100C22007F4F2E893F892A31310550F4CB018062F2
:100C3200815691094A9720F4CB010E945A19BC01AE
:100C42000E851F850F5F1F4FEE85FF85E60DF71D91
:100C5200608331E0231A3108412C512C2F8D38A1A9
:100C620049815A81C501B4010E94DD199B01AC0181
:100C7200C701B6010E9494196B017C0120E030E0AB
:100C820040E85DE36F8D78A189819A810E94DD1928
:100C92006F8F78A389839A8348855985415051097A
:100CA200488759878C899D898417950709F065CFF4
:100CB2002C853D85232B49F5F301E00FF11F4114EB
:100CC2005104E1F04A895B8914161506BCF45F8170
:100CD20050FD14C08EE28083F8013196E60DF71DB7
:100CE200C20120E321930197E9F7040D151D0F5F5F
:100CF2001F4F40945094240C351C07C08F8184FFF1
:100D020004C08EE280830F5F1F4FF301E00FF11FDB
:100D1200E887F9871082EB8DFC8D3197E60DF71D80
:100D220010822B813C8137FF09C031952195310911
:100D32002B833C83EE24E394F12C02C0E12CF12CB2
:100D420021E030E08AE0C82ED12CCF018619970924
:100D52004B815C81452B79F08B819C81B6010E948D
:100D62001B18805D82936B837C832150310941E0A3
:100D7200241A3108EACF2130310571F3FC01319791
:100D8200E60DF71DE114F10411F42BE201C02DE28E
:100D920020830297B301680F791FEE89FF897A9742
:100DA20010F020E701C020E5FB0120830817190796
:100DB20024F4888599850E947C19FF81F1FF27C060
:100DC200F0FD25C022E0221A310812141304FCF4AB
:100DD200C3010E94D818860D971D9C012619370958
:100DE2004D815E81241735073CF0FC012081E20D24
:100DF200F31D20830197F1CFA10160E370E08D81A3
:100E02009E81860D971D0E9451191A861B86C30169
:100E12000E94D8180F811A8D2A853B85AC01B30137
:100E2200888D998D0E94C914A096E2E10C94EC176A
:0A0E32005F8153FF2ECD80E21FCD3B
:100E3C00A2E1B0E0E4E2F7E00C94A6174C016B01E0
:100E4C0019821A828FEF9FEF8B839C831D821E82E7
:100E5C004F83588729873A87A12CB12CD6016D90E6
:100E6C007C90F301EA0DFB1D808181110FC0D6012E
:100E7C00ED93FC938081853209F0D9C13F01BFEF1E
:100E8C006B1A7B0AF6016082718219C0853279F384
:100E9C00B401082E000C990B0E94F0134FEFA41A0A
:100EAC00B40ADCCF8C32ACF08D32F9F489819A81A2
:100EBC00816089839A833196D601ED93FC93D60198
:100ECC00ED91FC9180818B3269F789819A818460E4
:100EDC00F0CF803221F489819A818860EACF833205
:100EEC0051F489819A818061E4CF803321F4898126
:100EFC009A818260DECFB701C6010E9498158D835E
:100F0C009E8397FF0BC029813A81B1E02B2729835F
:100F1C003A839195819591098D839E8389819A81DC
:100F2C0080FF03C08D7F89839A83D601ED91FC915C
:100F3C00119780818E3249F43196ED93FC93B70171
:100F4C00C6010E9498158B839C83C6010E94BA1619
:100F5C00582ED601ED91FC918081082E000C990B36
:100F6C000E948419893609F443C084F4833609F449
:100F7C0008C134F4853209F42DC18136E1F036C153
:100F8C008436B1F188360CF4DFC030C1803709F4F7
:100F9C009AC03CF48E3609F4C2C08F3609F461C095
:100FAC0025C1853709F440C0883709F476C08337EA
:100FBC0009F01CC1F9C0652D70E0A701CE010B969C
:100FCC000E94DA16892B09F42CC1D601ED91FC9103
:100FDC001197CF0101968D939C932081AE01455FB3
:100FEC005F4FBE016F5F7F4FC4010E94090416C1A1
:100FFC00652D70E0970141E050E0CE010B960E9408
:10100C00340E892B09F40DC1F60180819181019672
:10101C0080839183AE01455F5F4FBE016F5F7F4F51
:10102C00C4010E947A0DFAC0652D70E0970140E072
:10103C0050E0CE010B960E94340E892B09F4F1C0BE
:10104C00D6018D919C91119701968D939C93AE0135
:10105C00455F5F4FBE016F5F7F4FC4010E94481315
:10106C00DDC0652D70E0970140E050E0CE010B969D
:10107C000E94340E892B09F4D4C0F6018081918131
:10108C00019680839183AE01455F5F4FBE016F5F18
:10109C007F4FC4010E947812C1C0652D70E097018A
:1010AC0040E050E0CE010B960E94340E892B09F4DF
:1010BC00B8C0D601ED91FC911197CF0101968D939B
:1010CC009C93208122C0D701ED91FC911197CF0107
:1010DC0002968D939C93008111810B871C871D8632
:1010EC001E861F86188A198A1A8AF60180819181B8
:1010FC000196808391838B859C85892B29F420E034
:10110C0030E049EC53EB84C028E7AE01455F5F4FFC
:10111C00BE016F5F7F4FC4010E94910A7FC0A50181
:10112C00400F511F652D70E09701CE010B960E9468
:10113C00A211892B09F475C0D6018D919C91119740
:10114C0001968D939C9373C0652D70E0A701CE0121
:10115C000B960E94DA16892B09F463C0D601ED9127
:10116C00FC911197CF0101968D939C932081AE0138
:10117C00455F5F4FBE016F5F7F4FC4010E947500DA
:10118C004DC0B0E85B124DC0F60180819181019693
:10119C0080839183D701ED91FC911197CF01029639
:1011AC008D939C93808120C0B0E85B123AC0F6010D
:1011BC0080819181019680839183D701ED91FC917F
:1011CC001197CF0102968D939C934081518120E021
:1011DC0030E01EC0B0E85B1224C0F60120813181E2
:1011EC002F5F3F4F208331838B870DC085E28B8728
:1011FC00D6016D927C9219821A821D821E828FEF0B
:10120C009FEF8B839C8321E030E0AE01455F5F4F05
:10121C00BE016F5F7F4FC4010E94C6158A0D9B1DD6
:10122C0007C0F60180819181019680839183C5016D
:08123C006296EFE00C94EF173D
:101244001F93CF93DF93EC01162F6EEF610F0E9473
:10125400BC17612F70E0FB013297EC0FFD1F6C0F80
:101264007D1F20E030E022953295307F3227207FA9
:101274003227419190ED940F9A3078F09FEB940FC0
:10128400963018F499EC940F08C09FE9940F9630A7
:1012940018F499EA940F01C090E0292BE617F70798
:1012A40011F7821749F08AED9DE99F938F930E946D
:1012B4009A160F900F902FC11E3009F0AEC0FE0198
:1012C4003296AE014C5F5F4F80E090E0829592953C
:1012D400907F9827807F9827319120ED230F2A3023
:1012E40078F02FEB230F263018F429EC230F08C0D5
:1012F4002FE9230F263018F429EA230F01C020E038
:10130400822BE417F50711F7809303389C8180ED55
:10131400890F8A3078F08FEB890F863018F489ECC6
:10132400890F08C08FE9890F863018F489EA890F7C
:1013340001C080E080930438FE013596AE01485F19
:101344005F4F80E090E082959295907F9827807F10
:101354009827319120ED230F2A3078F02FEB230FBB
:10136400263018F429EC230F08C02FE9230F263068
:1013740018F429EA230F01C020E0822B4E175F07DF
:1013840011F78093073890930838FE013896AE0120
:10139400455F5F4F80E090E082959295907F98271B
:1013A400807F9827319120ED230F2A3078F02FEB9E
:1013B400230F263018F429EC230F08C02FE9230F3C
:1013C400263018F429EA230F01C020E0822B4E179F
:1013D4005F0711F780930538909306389B8580ED5D
:1013E400890F8A3078F08FEB890F863018F489ECF6
:1013F400890F08C08FE9890F863018F489EA890FAC
:1014040001C080E08093093884EE9DE99F938F9317
:101414000E949A160F900F907EC046E050E066EF4F
:101424007DE9CE010E94FA16892B99F40E948A174D
:10143400E7E1F8E383818F9382818F938DEF9DE9B8
:101444009F938F930E949A160F900F900F900F9076
:1014540062C046E050E06AE17EE9CE010E94FA16DD
:10146400892B79F50E946718E3E1F8E3228133813F
:101474002B5F3F4FADECBCEC0E94C9189695879545
:1014840096958795969587959F938F932081318123
:101494002B5F3F4F0E94C91896958795969587951F
:1014A400969587959F938F9381E29EE99F938F935F
:1014B4000E949A160F900F900F900F900F900F901C
:1014C4002AC046E050E06EE57EE9CE010E94FA169D
:1014D400892BC9F4E0E0F4E080E18783848184FF10
:1014E40009C085E69EE99F938F930E949A160F90F8
:1014F4000F9011C085E79EE99F938F930E949A16DF
:101504000F900F9008C086E89EE99F938F930E94E6
:0E1514009A160F900F90DF91CF911F910895BE
:10152200A4E1B0E0E7E9FAE00C94A3178F8398876F
:1015320069837A834B8B5C8B122FDB011296ED91C0
:10154200FC91139714962D913C9115972D833E8310
:10155200CD90DC90119716962D903C901797F7FD41
:1015620003C0E894C1F802C0E1E0F0E0C601807176
:10157200992789879A87C4FE18C0AB89BC892C91A8
:1015820011963C91119712964D915D916D917C91BE
:10159200159716968C91169717969C910E9463192F
:1015A20021F08D819E81029702C08D819E819601DC
:1015B200287033272B873C87C3FC0197AB89BC89F2
:1015C2004C9011965C90119712966D907D908D9033
:1015D2009C9015971696AC9016971796BC90A98179
:1015E200BA811896ED90FC901997B1E0EB1AF108C8
:1015F200D101AE0DBF1D1C928B839C839F01281BC2
:10160200390B2D873E87C601827099278F87988B69
:10161200812F012E000C990BDC01A154B109A98B79
:10162200BA8B32E0E316F10430F489859A85892B6E
:1016320009F04BC06BC09201A301B401C5010E9425
:10164200631981F1B1E0EB1AF108C2018F70992799
:101652008A30910514F4C09602C0895A9F4FE989D5
:10166200FA897A9748F49C012062215631092A317D
:10167200310510F40E945A19F101EE0DFF1D80830D
:101682002B813C81215031092B833C839201A301A0
:10169200B401C50104E00E941B1729013A014B0164
:1016A2005C01BFCF8D859E85AB81BC818A0F9B1F5C
:1016B200181619063CF21A161B060CF0B6CFEF8567
:1016C200F889EF2B09F0BECFB0CFAB89BC892C9142
:1016D20011963C91119712964D915D916D917C916D
:1016E200159716968C91169717969C910E946319DE
:1016F20069F0F101EE0DFF1D31971083B2E0EB1A94
:10170200F108F101EE0DFF1D80E38083EB85FC857E
:10171200EF2B41F0F1E0EF1AF108F101EE0DFF1DA0
:1017220080E28083A981BA8118964D915C911997C4
:10173200415051094E195F09B1016E0D7F1D86019D
:101742002D813E818F8198850E94C9149C01EF8171
:10175200F8858081918190FF09C0A981BA81129692
:101762008D919C911397821793070CF4C90164968B
:06177200E2E10C94EC170B
:10177800CF93DF9320911538309116382B5F3F4F68
:10178800ADECBCEC0E94C9189695879596958795FF
:1017980096958795BC017727E2E0F8E3218130E050
:1017A800428150E0E901C40FD51F9085913009F4BA
:1017B800ABC030F09230F1F0933009F47FC0C8C06C
:1017C800C617D7079CF480E18093060481E00E9445
:1017D800351981E00E942B1980E099E180930E3839
:1017E80090930F3883E080930A38B2C080E00E945B
:1017F8002B19AEC0C901841B950BAC01681779077A
:10180800BCF580E18093060480911B3890911C38C8
:10181800A0911D38B0911E380097A105B10561F05F
:101828000197A109B10980931B3890931C38A093A4
:101838001D38B0931E388CC080E00E94351981E0B5
:101848000E942B1980E099E180930E3890930F380D
:1018580081E080930A3880E593ECA0E0B0E08093C3
:101868001B3890931C38A0931D38B0931E3870C055
:1018780020911338309114382B5F3F4FADECBCECFE
:101888000E94C918969587959695879596958795F8
:101898009927C817D9073CF480E00E942B1980E1EA
:1018A8008093060455C0841795070CF051C080E05A
:1018B8000E942B1980E1809305044AC08091053865
:1018C800909106382091193830911A38821B930B61
:1018D800181619061CF40E943C143AC097FF03C05E
:1018E8009195819591092091093830E02817390799
:1018F8007CF182E080930A3810920E3810920F38EB
:1019080080E00E942B1924C08091193890911A38D0
:101918002091073830910838821B930B1816190646
:101928001CF40E943C1414C097FF03C09195819544
:1019380091092091093830E0281739074CF01092A6
:101948000A3810920E3810920F3880E00E942B1936
:06195800DF91CF9108951C
:10195E00CF93DF9380912038811108C085E090E00D
:10196E000E94431881E08093203803C0813009F033
:10197E00B7C08091430180FFB3C081E080934301E3
:10198E00C3E1D8E3288139812B5F3F4FADECBCEC2E
:10199E000E94C918969587959695879596958795E1
:1019AE009F938F9384E99EE99F938F930E949A163B
:1019BE002A813B812B5F3F4FADECBCEC0E94C918D6
:1019CE009695879596958795969587959F938F93E0
:1019DE0081EB9EE99F938F930E949A16C7E1D8E3FD
:1019EE008B818F938A818F9384ED9EE99F938F9342
:1019FE000E949A168AEE9EE99F938F930E949A16E2
:101A0E002A813B81E2E0F8E343815481878190E0B3
:101A1E00BA01680F791FEDB7FEB73E96EDBFFEBF58
:101A2E006217730770F0481B590B2417350748F0DF
:101A3E008DEF9EE99F938F930E949A160F900F90B1
:101A4E0020C04091073850910838BC01640F751FB3
:101A5E006217730770F0481B590B2417350748F0AF
:101A6E0089E09FE99F938F930E949A160F900F9093
:101A7E0008C084E19FE99F938F930E949A160F905E
:101A8E000F9080910A381F928F938FE19FE99F9359
:101A9E008F930E949A16809104040F900F900F90CE
:101AAE000F9084FF09C085E69EE99F938F930E9455
:101ABE009A160F900F9008C085E79EE99F938F931B
:101ACE000E949A160F900F9085E39FE99F938F9334
:101ADE000E949A16109220380E943F190F900F9074
:061AEE00DF91CF91089585
:101AF400ACE0B0E0E0E8FDE00C94A31789879A8796
:101B04006B837C83FA01DB011296CD90DC901397F2
:101B140014968D919C9115978D839E83ED90FC90E6
:101B24001197E982FA8216960D90BC91A02DAF838D
:101B3400B88720803180428053806480758086809D
:101B440097808101B42DA52DF62DE72D8B869C86DB
:101B54009101A201B301C4010E9463194CF40E94D3
:101B6400B9188901B42FA52FF62FE72F8B879C87EF
:101B7400D7FC04C0E894E1F8E982FA829101A20159
:101B8400B301C401ED80FE800E9463191CF08981B9
:101B940082FF04C081E0E81AF10805C083FF03C096
:101BA40091E0E91AF108CE0101965C018AE0C82EA1
:101BB400D12C2B2F3A2F4F2F5E2F6B857C858B8159
:101BC4009C810E949C0FFC019101A201B301C401FC
:101BD4000E9463191CF0898182FF10C03197AF8184
:101BE400B885AE0FBF1F9101A201B301C4010E94C9
:101BF400631914F08BE20AC08DE208C083FF07C0AA
:101C04003197AF81B885AE0FBF1F80E28C930981F5
:101C14001A81AB81BC8118964D915C911997415002
:101C240051094E1B5F0B6F8178856E0F7F1F2D81CD
:101C34003E8189859A850E94C9149C01E985FA85AB
:101C44008081918190FF09C0AB81BC8112968D91F6
:101C54009C911397821793070CF4C9012C96E2E127
:041C64000C94EC17D9
:101C68000F931F93CF93DF93FC01D9016838710557
:101C780031F194F461387105B1F12CF460387105D3
:101C880009F478C09FC06238710509F459C06438F6
:101C9800710509F46FC096C0603A710509F448C02F
:101CA8002CF46039710509F44BC08CC0603C710597
:101CB80009F476C0603F710509F472C083C0CD9104
:101CC800DC911197CE0102968D939C93452B39F0A8
:101CD8009881892F880F880B908381835BC08881C6
:101CE8008083118268C0CD91DC911197CE01049652
:101CF8008D939C93452B99F088819981AA81BB810A
:101D0800AC01BD01770F440B542FBA018083918336
:101D1800A283B383448345834683478328C00881CD
:101D280019812A813B81008311832283338345C033
:101D3800CD91DC911197CE0102968D939C9323C08F
:101D4800CD91DC911197CE0108968D939C93788163
:101D580069815A814B813C812D819E818F8170835D
:101D6800618352834383348325839683878381E009
:101D780090E02AC0CD91DC911197CE0102968D9307
:101D88009C93452BA1F099812881892F880F880B76
:101D98002083918382838383848385838683E6CFAC
:101DA800CD91DC911197CE0102968D939C93088179
:101DB800198100831183128213821482158216827C
:101DC8001782D5CF80E090E0DF91CF911F910F91DE
:021DD80008956C
:101DDA00426164204352430D0A0044756F6D656E7B
:101DEA007973206761757469210D0A004D45534165
:101DFA003241004D6174756F6A616D6173206B6168
:101E0A006D706173207972613A202564B00D0A0001
:101E1A00524544543130004D6174756F6A612074C3
:101E2A00656D7065726174FB7261207972613A2026
:101E3A000A4B616D626172696F3A2025642043B072
:101E4A000A4B2E56616E64656E733A2025642043F0
:101E5A00B00D0A0050545354453800506F6D7061EC
:101E6A0020C16A756E6774610D0A00506F6D7061EA
:101E7A002049F06A756E6774610D0A004261642038
:101E8A00636F6D6D616E640D0A004B616D62617204
:101E9A00696F2074656D7065726174FB72612025CB
:101EAA00642043B00D0A004B6172F0746F207661B2
:101EBA006E64656E732074656D7065726174FB7211
:101ECA00612025642043B00D0A00536B6C656E6473
:101EDA00EB73206B616D706173202564B00D0A008D
:101EEA00536B6C656E64EB7320706164EB74697399
:101EFA003A20004174696461727974610D0A00556F
:101F0A00FE6461727974610D0A00566964757279AA
:101F1A006A650D0A00536B6C656E64EB732062FB95
:0E1F2A0073656E61202564B00D0A000D0A007B
:101F3800A2E1B0E0E2EAFFE00C94A317FC010A8BEF
:101F48001B832C83732E642E552E462E7D83CC86C0
:101F5800D886AE82BF82268137812A873B87D50102
:101F68008D919C9122813381408551851A01B1E080
:101F78002B1A310837FF02C021E030E0EA85FB85E3
:101F8800E20DF31D10824701E1E0F0E0E983FA83F6
:101F9800A9014E195F094D875E87DC01A270BB2736
:101FA800AF87B88BB885BB0FBB0BB98B2114310435
:101FB80009F450C02A893B814C81572D662D752D17
:101FC800842D9D810E946319B1F1E1E02E1A310838
:101FD800FC85F987AF2EB884C988DC2CEC2CFC2C46
:101FE8000C2D1C2D2A893B814C81572D662D752D72
:101FF800842D9D810E94E618C90129839A83EA8568
:10200800FB85E20DF31D805D808321E0821A910833
:102018002A893B814C81572D662D752D842D9D81F4
:102028000E94E8182A8B3B834C83752E662E572E08
:10203800482E9D83BBCF8D859E85880D991D1816CA
:1020480019061CF2181419042CF44F855889452BCD
:1020580009F0BBCF89819A81892B41F4AE81BF8178
:102068008D919C9111978F7E8D939C93C10162965F
:06207800E2E10C94EC17FC
:10207E00009BAD36C15A6CF71982B42FD84375EE5A
:10208E0032A99F04F3685EC52BB0861DEA7147DC4A
:10209E0064FFC952A53E08937DE6D04BBC27118A3A
:1020AE0056CDFB60970C3AA14FD4E2798E1523B82A
:1020BE00C85365FE0992A43FD14A7CE7108BBD261A
:1020CE00FA6157CC3BA0960DE3784ED522B98F140A
:1020DE00AC37019A6DF6C05BB52E188374EFD942FA
:1020EE009E0533A85FC4F269871C2AB146DDEB70EA
:1020FE000B90A63DCA5167FC1289BF24D3487EE5DA
:10210E0039A2940FF86355CE20BB8D16E17A4CD7C9
:10211E006FF4C259AE35039876EDDB40B72C1A81B9
:10212E005DC6F06B9C0731AA44DFE972851E28B3A9
:10213E00C3586EF50299AF34DA4177EC1B80B62D99
:10214E00F16A5CC730AB9D06E87345DE29B2841F89
:10215E00A73C0A9166FDCB50BE2513887FE4D24979
:10216E00950E38A354CFF9628C1721BA4DD6E07B69
:10217E008F929F92AF92BF92CF92DF92EF92FF9289
:10218E000F931F938B019C011127032F000F111F1B
:10219E0027FB00F9222733271127A8014F57510992
:1021AE00473151050CF045C057FD2DC00FEF1FEF05
:1021BE002FE730E004C035952795179507954A957A
:1021CE00D2F74801590186229722A822B9228928DE
:1021DE008A288B2871F197FF07C0DC01CB01800F95
:1021EE00911FA21FB31F02C0DC01CB0100951095F9
:1021FE002095309580239123A223B323482F392F86
:10220E002A2F5B2F1AC097FF0FC08B019C01000F66
:10221E00111F221F331F012B022B032B51F040E005
:10222E0030E020E85FEB09C040E030E020E050E015
:10223E0004C0462F372F282F592F642F732F822F2C
:10224E00952F1F910F91FF90EF90DF90CF90BF9041
:08225E00AF909F908F9008954E
:1022660010C00E94A91958F00E94A21940F029F442
:102276005F3F29F00C94C91951110C94B1190C94B3
:10228600E8190E94581668F39923B1F3552391F380
:10229600951B550BBB27AA2762177307840738F0CF
:1022A6009F5F5F4F220F331F441FAA1FA9F335D02C
:1022B6000E2E3AF0E0E832D091505040E695001CE0
:1022C600CAF72BD0FE2F29D0660F771F881FBB1F9A
:1022D600261737074807AB07B0E809F0BB0B802D78
:1022E600BF01FF2793585F4F3AF09E3F510578F0A4
:1022F6000C94C9190C94B1195F3FE4F3983ED4F3DA
:10230600869577956795B795F7959F5FC9F7880F77
:10231600911D9695879597F90895E1E0660F771FC9
:10232600881FBB1F621773078407BA0720F0621B5A
:0E233600730B840BBA0BEE1F88F7E095089529
:10234400CF93DF93DC01F90164387105D9F164F4AA
:102354006138710521F16238710509F440C06038B3
:10236400710509F054C02EC060397105C1F184F4BF
:102374006838710509F04BC0C081D181CE01029645
:1023840080839183E881F981ED93FC9340833CC081
:10239400603A7105B9F0603C7105A1F038C0C081A4
:1023A400D181CE01029680839183E881F981ED93F6
:1023B400FC93052E000C660B770B408351836283DC
:1023C400738322C0C081D181CE0102968083918320
:1023D400E881F981ED93FC934083518315C0C0815A
:1023E400D181CE01029680839183E881F981ED93B6
:1023F400FC9340835183852F880F880B82838383CA
:10240400848385838683878381E090E002C080E0B3
:0824140090E0DF91CF910895E3
:10241C000FC00E94A21938F00E94A91920F0952330
:10242C0011F00C94C9190C94E81911240C94B119DD
:10243C000E94581670F3959FC1F3950F50E0551FED
:10244C00629FF001729FBB27F00DB11D639FAA27FD
:10245C00F00DB11DAA1F649F6627B00DA11D661F4C
:10246C00829F2227B00DA11D621F739FB00DA11D6D
:10247C00621F839FA00D611D221F749F3327A00D27
:10248C00611D231F849F600D211D822F762F6A2FC3
:10249C0011249F5750409AF0F1F088234AF0EE0F28
:1024AC00FF1FBB1F661F771F881F91505040A9F755
:1024BC009E3F510580F00C94C9190C94B1195F3FE3
:1024CC00E4F3983ED4F3869577956795B795F79591
:1024DC00E7959F5FC1F7FE2B880F911D9695879509
:0424EC0097F90895BF
:1024F000A2E0B0E0EEE7F2E10C94A3171C014B015F
:10250000FA01DB0112962D913C91139714964D9090
:102510005C9015978D919C91119789839A8316965B
:102520006D907C90179737FD03C08D7F89839A83C8
:1025300000811181228133814481558166817781B7
:10254000FE0131965F0188E0C82ED12C7201C401D2
:102550000E949C0F298124FF06C00197F301E80F18
:10256000F91F20E32083298123FF06C00197F3018F
:10257000E80FF91F20E2208309811A81D4011896FF
:102580004D915C91199741505109481B590BB3016A
:10259000680F791F9201C1010E94C9149C01F101C9
:1025A0008081918190FF08C0D40112968D919C91F9
:1025B0001397821793070CF4C9012296E2E10C9459
:0225C000EC1716
:1025C20011C00E94A21938F00E94A91920F039F412
:1025D2009F3F19F426F40C94E8190EF4E095E7FBFA
:1025E2000C94C919E92F0E94581658F3BA176207BA
:1025F20073078407950720F079F4A6F50C94B019B7
:102602000EF4E0950B2EBA2FA02D0B01B90190010B
:102612000C01CA01A0011124FF27591B99F0593F4F
:1026220050F4503E68F11A16F040A22F232F342F97
:102632004427585FF3CF469537952795A795F040E5
:102642005395C9F77EF41F16BA0B620B730B840BFA
:10265200BAF09150A1F0FF0FBB1F661F771F881FB2
:10266200C2F70EC0BA0F621F731F841F48F487950A
:1026720077956795B795F7959E3F08F0B0CF9395FC
:0E268200880F08F09927EE0F97958795089519
:10269000A2E0B0E0EEE4F3E10C94A3173C014B019F
:1026A000FA01DB0112962D913C91139714964D90EF
:1026B0005C9015978D919C91119789839A831696BA
:1026C0002D903C90179737FD03C08D7F89839A83A7
:1026D0000081118122813381448155816681778116
:1026E000FE0131965F018AE0C82ED12C7201C4012F
:1026F0000E949C0F09811A81D40118964D915C911A
:10270000199741505109481B590BB101680F791FA6
:102710009201C3010E94C9149C01F301808191813F
:1027200090FF08C0D40112968D919C911397821747
:0E27300093070CF4C9012296E2E10C94EC1719
:10273E0088249924F401E401B0E49F93AA279A1502
:10274E008B049C04ED05FE05CF05D007A10798F478
:10275E00AD2FDC2FCF2FFE2FE92D982C892E982F01
:10276E00872F762F652F542F432F322F2227B850C5
:10277E0031F7BF9127C01B2EBF91BB27220F331FEE
:10278E00441F551F661F771F881F991F881C991C91
:10279E00EE1FFF1FCC1FDD1FAA1FBB1F8A149B0439
:1027AE00EC05FD05CE05DF05A007B10748F08A1838
:1027BE009B08EC09FD09CE09DF09A00BB10B2160C6
:1027CE001A94E1F62EF49401AF01BE01CD01000C76
:0227DE0008955C
:1027E0000F931F93CF93DF93DB01109719F48FEFB3
:1027F0009FEF3DC02D913C91119730FF25C016965B
:102800004D915C91179714962D913C911597421715
:10281000530778F41296ED91FC91139780831296EA
:102820002D913C9113972F5F3F4F12962D933C9320
:10283000139716962D913C9117972F5F3F4F169641
:102840002D933C93179713C01C96ED91FC911D9707
:10285000309769F2EB01092F182F0995892B39F66A
:102860008E819F8101968E839F83812F902FDF9190
:08287000CF911F910F91089513
:10287800CF93DF9320910E3830910F382115310511
:1028880031F488E0809305040E94BD1939C0809115
:102898001238813091F018F0823021F131C084E093
:1028A80080930504CBE0D8E36D817E8180E090E0E1
:1028B8000E94371781E08F8323C080910B0A80FF25
:1028C8001FC081E080930B0A84E080930604CBE06C
:1028D800D8E36D817E8180E090E00E94371782E026
:1028E8008F830EC080910B0A80FF0AC081E080931D
:1028F8000B0AEBE0F8E32150310923833483178274
:06290800DF91CF9108955C
:10290E00A0E1B0E0EDE8F4E10C94AD17FB01BA01E3
:10291E00AE014F5F5F4F6A0140E1D6011D924A95AD
:10292E00E9F742E051E049835A838B839C83F7FF9A
:10293E0009C08FE490E080930038909301388FEFB8
:10294E009FEF1CC0309729F0AF01415051094D83C4
:10295E005E83A9018F017C01C6010E94D417011567
:10296E00110561F04F8158852D813E814217530725
:10297E0008F49A01F701E20FF31F10826096E8E067
:04298E000C94F61798
:10299200A0E0B0E0EFECF4E10C94A9176C015B014C
:1029A2007A01E901480181E08822992400FD03C0EF
:1029B2004217530750F0A701B501C6010E945417F0
:1029C200EC16FD0610F0C70117C08E010E191F0983
:1029D2000115110541F0B60180E290E00E94F0136A
:1029E20001501109F5CF8114910429F4A701B50111
:1029F200C6010E945417CE01CDB7DEB7ECE00C94AD
:022A0200F217C9
:102A0400A2E8B0E0E8E0F5E10C94A9175C014A0102
:102A140069837A83C12CD12CE981FA81808188234E
:102A2400E9F07401860120E830E0AE014D5F5F4FAC
:102A3400BE016F5F7F4FC5010E941E078C0D9D1D57
:102A44008C159D054CF48FE490E0809300389093AE
:102A540001388FEF9FEF03C06C01DECFC601CE5764
:082A6400DF4FECE00C94F217C7
:102A6C000F931F93CF93DF93CDB7DEB72E97CDBFC8
:102A7C00DEBF0E94FF1800E010E016C00E94FF1895
:102A8C00002391F08E3331F4612FCE0101960E9418
:102A9C00220911C01E3040F4E1E0F0E0EC0FFD1F04
:102AAC00E10FF11D80831F5F8C3341F70E94FF18EB
:102ABC0001E010E0E7CF2E96CDBFDEBFDF91CF91C6
:062ACC001F910F91089517
:102AD2000E94601688F09F5798F0B92F9927B75136
:102AE200B0F0E1F0660F771F881F991F1AF0BA95B0
:102AF200C9F714C0B13091F00E94B019B1E0089545
:102B02000C94B019672F782F8827B85F39F0B93F36
:102B1200CCF3869577956795B395D9F73EF4909562
:0E2B22008095709561957F4F8F4F9F4F08955E
:102B3000DC01ED91FC91119780818A3221F080E0D7
:102B400090E03AE00EC03196ED93FC93DB01ED91FD
:102B5000FC911197CF0102968D939C938081918176
:102B60000895ED91FC911197208120532A3068F44B
:102B7000389FA001399F500D1124CA01820F911D69
:0C2B80003196ED93FC931197ECCF089573
:102B8C00A0E0B0E0ECECF5E10C94AB177C01FB01A0
:102B9C00EA01C901A280B380C480D5800081118173
:102BAC00209711F4C2ECD3EB009719F4CE010E94DC
:102BBC00D818B7FC04C0A816B90608F4C5019601CC
:102BCC00AC01BE01C7010E94C914CDB7DEB7EAE063
:042BDC000C94F4174A
:102BE000990F0008550FAA0BE0E8FEEF161617061E
:102BF000E807F907C0F012161306E407F50798F086
:102C0000621B730B840B950B39F40A2661F0232B9E
:102C1000242B252B21F408950A2609F4A140A6951A
:082C20008FEF811D811D089555
:102C2800EF92FF920F931F93CF93DF938C017C0158
:102C3800C0E0D0E006C0F70181917F010E946C19C5
:102C48002196F80101900020E9F73197E01BF10B7C
:102C5800CE17DF0780F3DF91CF911F910F91FF907F
:042C6800EF9008954C
:102C6C00A1E21A2EAA1BBB1BFD010DC0AA1FBB1F84
:102C7C00EE1FFF1FA217B307E407F50720F0A21BF6
:102C8C00B30BE40BF50B661F771F881F991F1A9463
:102C9C0069F760957095809590959B01AC01BD018D
:042CAC00CF010895B7
:102CB00057FD9058440F551F59F05F3F71F04795ED
:102CC000880F97FB991F61F09F3F79F087950895D2
:102CD000121613061406551FF2CF4695F1DF08C0F1
:102CE000161617061806991FF1CF8695710561050E
:042CF00008940895A7
:102CF400873021F490EA9093020603C097EA9093F8
:102D04000206E0E0F6E0848782858160828786811E
:102D140080FDFDCFE0E0F6E0858180FFFDCFE0E0BF
:102D2400F6E081E0858380899189A289B389089539
:102D3400CF93DF93CDB7DEB7C054D109CDBFDEBF8B
:102D44009E012B5B3F4FF901419151919F0160E43A
:102D540070E0CE0101960E948714CE0101960E9474
:102D64001416C05CDF4FCDBFDEBFDF91CF91089555
:102D7400CF93DF93EC0190E0E92FF0E0EE0FFF1F1B
:102D8400E05CFD448081811102C081810EC0A88174
:102D9400B9812C91821305C091811196A883B983BE
:102DA40001C09F5F9B3040F3892FDF91CF9108953D
:102DB400FA0160387105CCF0623871051CF0633893
:102DC400710599F4A081B1819D012C5F3F4F20834F
:102DD40031834D915D916D917C91FC0140835183D0
:102DE4006283738381E090E0089580E090E0089529
:102DF400CF93DF9341155105A9F0DC01FB01EF01ED
:102E04008D91882351F09191992339F041305105E6
:102E140021F041505109891791F390E02881821BD8
:0E2E2400910902C080E090E0DF91CF91089507
:102E320097FB10F8169400080F93083098F008508A
:102E4200232F342F452F562F672F782F892F902D20
:102E5200F4CF0594979587957795679557954795FC
:0C2E6200379527950A95AAF70F9108955F
:102E6E00CF93DF939B01AC01C0E0DAE0188260EDF6
:102E7E0072E183E190E00E94A91820E432E44FE071
:102E8E0050E00E9436162EA33FA318A219A28881E5
:0A2E9E0081608883DF91CF910895D1
:102EA800A0E0B0E0EAE5F7E10C94AD176C01EB01A6
:102EB8008A017B01E40EF51ECE15DF0541F08991EC
:102EC800B601082E000C990B0E94F013F5CFC8012B
:0A2ED800CDB7DEB7E8E00C94F61762
:102EE200A0E2B4E08AE012968C931297E0E0F4E05C
:102EF20080EE828384E0858B868B878B88E0519677
:102F02008C9351979EE1918395E011969C938583D2
:022F1200089520
:102F1400CF93DF9387E00E947A16C7E1D8E38883D2
:102F240099839C01A8E6B1E00E94C9182FEF3FE005
:102F340040E050E00E9436162A833B83DF91CF9114
:022F44000895EE
:102F46002F923F924F925F926F927F928F929F92B3
:102F5600AF92BF92CF92DF92EF92FF920F931F93A1
:102F6600CF93DF93CDB7DEB7CA1BDB0BCDBFDEBF7A
:022F76000994BC
:102F78006623A1F0DC016150262F30E02F5F3F4F20
:102F8800280F391F8FEFED918E27E82FF0E0E258D8
:102F9800FF458081A217B307B1F708958FEF089511
:102FA800A2E0B0E0EAEDF7E10C94B1178C01498397
:102FB8005A83AE014F5F5F4F0E940215F8012081CE
:102FC80024FF02C08FEF9FEF2296E4E00C94FA17DB
:102FD8002A88398848885F846E847D848C849B84A1
:102FE800AA84B984C884DF80EE80FD800C811B81AF
:102FF800AA81B981CE0FD11DCDBFDEBFED010895E5
:103008000E9489180E9471170E94F4180E9456188D
:103018000E94B71981E00E9448198091280481FD17
:0E30280003C081E0809302380E949918FDCF0A
:1030360097FB072E16F4009407D077FD09D00E945F
:103046002F1807FC05D03EF4909581959F4F089563
:08305600709561957F4F08950C
:10305E00AA1BBB1B51E107C0AA1FBB1FA617B707B0
:10306E0010F0A61BB70B881F991F5A95A9F78095CC
:08307E009095BC01CD010895FD
:103086009C01E0E4F1E091819111FDCFE0E4F1E0F3
:1030960081E08783C901019782879387108611860D
:0630A60081E5808308951E
:1030AC00E0E0F6E080E2808383E081831086118685
:1030BC0080E18287808181608083868180FDFDCF65
:0230CC00089565
:1030CE00CF93DF9386E00E947A16C3E1D8E388831C
:1030DE00998385E00E947A168A839B83DF91CF9134
:0230EE00089543
:1030F000092E0394000C11F4882352F0BB0F40F406
:10310000BF2B11F460FF04C06F5F7F4F8F4F9F4F45
:02311000089520
:1031120060E080E690E00E94C31960E081E690E002
:103122000E94C319E0E6F0E0838180FDFDCF08959F
:1031320080910238813019F40E94361508950E9458
:10314200BC0B0E948A170E9467180E94AF0C089558
:10315200DB018F939F930E940A19BF91AF91A29FA7
:10316200800D911DA39F900DB29F900D1124089583
:1031720060957095809590953095409550952195E4
:103182003F4F4F4F5F4F6F4F7F4F8F4F9F4F08956E
:10319200A29FB001B39FC001A39F700D811D112496
:0E31A200911DB29F700D811D1124911D089585
:1031B000FC01AF014F5F5F4F2081222311F0FA0124
:0C31C000F8CF9F01281B390BC9010895AE
:1031CC00689401C0E8948F929F92CF93DF930E94F2
:0C31DC009F13DF91CF919F908F9008957A
:1031E800E0E0F8E086EB92E08087918782EC8683C6
:0631F80083E087830895C7
:1031FE0080E880930408E0E0F8E084818823ECF70F
:06320E0080910008089504
:103214000E94C918A59F900DB49F900DA49F800D86
:06322400911D1124089524
:10322A00EC010E94F0190E94EF19CE010E94F119D7
:06323A00CE010E94ED1917
:1032400068076C094C836A9074A07AC00080688813
:0632500000846C82008185
:10325600813021F488E080930604089588E0809305
:0432660005040895BE
:10326A00811104C082E080930504089582E080936E
:04327A0006040895A9
:10327E00E0E4F1E080818E7F808381818111FDCF3A
:02328E000895A1
:10329000813019F480932504089581E080932604F9
:0232A00008958F
:1032A200FC01480F591FE417F50711F06193FBCF9A
:0232B20008957D
:1032B4009C01215631092A31310510F48F75992763
:0232C40008956B
:1032C60021153105410551056105710581059105F8
:0232D600089559
:1032D800E0E0F8E0948195FFFDCF8093020808951F
:1032E800494E4600696E66004E414E006E616E00A2
:1032F800FC01DB012D91BD0121932111FACF089525
:103308009C01215431092A31310508F4806208955D
:10331800494E4600696E66004E414E006E616E0071
:0E3328005058BB27AA270E94E1120C94781877
:0E3336000E9469156894B1110C94B1190895A4
:0E33440000240A9416161706180609060895A6
:0E33520000240A9412161306140605060895A8
:0E336000E894BB2766277727CB0197F90895DD
:0C336E00E0E0FAE0118288E0808308951E
:0C337A00E0E0FAE080818E7F80830895FF
:0C338600DC0128ED209334006C930895C6
:0C33920097F99F6780E870E060E0089504
:0A339E000E94F01508F481E0089584
:0A33A8000E94F01508F48FEF08955D
:0833B2000E9433110C947818FD
:0833BA000E940E120C94781819
:0733C200286E756C6C2900F8
:0633C900286E696C29006A
:0633D0009FEF80EC089560
:0433D6000C94000053
:0433DA000E947300DA
:0233DE00089550
:0233E00008954E
:0233E20008954C
:0933E400001901B4005A000200B6
:0833ED0000000000001E0000BA
:0433F50050C30000C1
:00000001FF
