:100000000C9440000C9461010C9461010C9461010A
:100010000C9461010C9461010C9461010C946101D8
:100020000C9461010C9461010C9461010C946101C8
:100030000C9461010C9461010C9461010C946101B8
:100040000C9461010C9461010C9461010C946101A8
:100050000C9461010C9461010C9461010C94610198
:100060000C9461010C9461010C9461010C94610188
:100070000C9461010C946101380038080002D00032
:1000800011241FBECFEFCDBFDFE3DEBFE8E7F0E016
:1000900040E017C0B591A59135912591059107FDD7
:1000A0000CC095918591EF01F92FE82F05900D92E5
:1000B000A217B307D9F7FE0104C01D92A217B30718
:1000C000E1F7EF37F40731F70E94F3000C94460193
:0400D000F894FFCFD2
:1000D400CF93DF938091033890910438892BD1F129
:1000E40080910738813091F018F0823021F132C0CC
:1000F40084E080930504C0E0D8E36D817E8180E0D4
:1001040090E00E94AF0081E08F8324C0809143017E
:1001140080FF20C081E08093430184E08093060443
:10012400C0E0D8E36D817E8180E090E00E94AF0062
:1001340082E08F830FC08091430180FF0BC081E078
:1001440080934301E0E0F8E3838194810197838302
:0A01540094831782DF91CF91089584
:10015E00CF93DF93E0E4F1E021812111FDCFC0E4E4
:10016E00D1E01F82052E5FE0660F771F881F991F53
:10017E005A95D1F7502D20E432E44FE050E00E9422
:10018E00D1002A873B871886198681E08883DF9104
:04019E00CF91089560
:1001A200A1E21A2EAA1BBB1BFD010DC0AA1FBB1F79
:1001B200EE1FFF1FA217B307E407F50720F0A21BEB
:1001C200B30BE40BF50B661F771F881F991F1A9458
:1001D20069F760957095809590959B01AC01BD0182
:0401E200CF010895AC
:1001E6000E9436010E940E010E94220181E00E94B7
:1001F600510180E099E18093033890930438C0E080
:10020600D8E30E946A008B819C81892BD1F780E01C
:060216000E945101F6CF29
:10021C00A0E2B4E08AE012968C931297E0E0F4E04E
:10022C0080EE828384E0858B868B878B8EE1818345
:08023C0085E011968C930895F2
:10024400E0E0F6E080E280838FE0818387EA8283C6
:1002540080E88087118680E1828780818160808345
:08026400868180FDFDCF0895A5
:10026C0060E080E690E00E945B0160E081E690E057
:10027C000E945B01E0E6F0E0838180FDFDCF0895F4
:10028C00EC010E9466010E946501CE010E9467018B
:06029C00CE010E94630187
:1002A200813021F488E080930604089588E08093E9
:0402B20005040895A2
:0C02B600DC0128ED209334006C930895C7
:0402C2000C94000098
:0402C6000E9468002A
:0202CA00089595
:0202CC00089593
:0202CE00089591
:0802D00000010000001F000006
:00000001FF
