:100000000C943F000C9413150C9413150C941315B9
:100010000C9413150C9413150C9413150C941315C0
:100020000C9413150C9413150C9413150C941315B0
:100030000C9413150C9413150C9413150C941315A0
:100040000C9413150C9413150C9413150C94131590
:100050000C9413150C9413150C9413150C94131580
:100060000C9413150C9413150C9413150C94131570
:100070000C9413150C9413153800380280001124C9
:100080001FBECFEFCDBFDFE3DEBFE8E7F0E040E02B
:1000900017C0B591A59135912591059107FD0CC02B
:1000A00095918591EF01F92FE82F05900D92A217F8
:1000B000B307D9F7FE0104C01D92A217B307E1F7F9
:1000C000ED37F40731F70E9404140C946614F89489
:0200D000FFCF60
:1000D200A5E2B0E0EFE6F0E00C9459138E8F9F8F0B
:1000E2006E8B7F8B298FFB010190F081E02DE987D8
:1000F200FA87FB0102811381248135812A8B3B8B94
:100102008085918588A399A326803780FA01808013
:100112009180A280B38020E030E0A901C501B40142
:100122000E94F71487FF06C0B7FAB094B7F8B094EC
:100132008DE204C0598552FF54C38BE2F1018083E2
:100142002A893B89215031092B833C8341E050E0CD
:10015200488B598B06C08A899B898B839C83188A1A
:10016200198AD501C401BF770097E0E8AE07EFE72F
:10017200BE0799F4F98D2F2FFF0F330B215431094C
:1001820088899989820D931D2A31310518F460E816
:1001920079EA19C064E879EA16C00197A048BF4716
:1001A200A8F0498D242F440F330B2154310988893B
:1001B2009989820D931D2A31310518F468E879EA8C
:1001C20002C06CE879EA0E94B014FAC220E030E082
:1001D200A901C501B4010E94F714C12CD12C20E859
:1001E200E22E2FE3F22E19821A82882309F48CC0A0
:1001F2008D829E82AF82B88620E030E040E251E4F8
:10020200C701B6010E9405152B013C01D501C401AD
:1002120084199509A609B709B7FF07C0B095A0953B
:10022200909581959F4FAF4FBF4F0297A105B105A2
:1002320044F489819A81019689839A8373016201C8
:10024200DBCFA5019401C301B2010E94F71487FD1F
:10025200F0CF8D819E81AF81B8858C199D09AE0941
:10026200BF090196A11DB11D0397A105B10508F4AF
:1002720049C01D821E82A5019401C701B6010E94D8
:10028200FC1418160CF040C0E981FA81E43DFE4FDF
:10029200E4F44D815E81452BC1F420E030E040E87A
:1002A2005AE5C501B4010E9405154B015C0120E02D
:1002B20030E040E85AE5C701B6010E9405156B011E
:1002C2007C0181E090E08D839E8320E030E040E27B
:1002D20051E4C701B6010E9401156B017C01E9815D
:1002E200FA813197E983FA83D501C4018C199D09FA
:1002F200AE09BF090196A11DB11D0397A105B10564
:1003020008F0B9CF46015701F98D8F2FFF0F990BD6
:100312000E94B814888F17FD03C00D831E8304C08A
:1003220026E030E02D833E83388D373639F4012BB9
:1003320041F441E050E04D835E8303C0288D2F8756
:1003420014C089819A818C3F9F4F0CF44FC28981DE
:100352009A81ED81FE818E179F070CF047C2298199
:100362003A8137FF46C236E63F874D815E814F5F55
:100372005F4F4D835E835F855636B9F489819A81DA
:1003820097FF08C0C12CD12C90E8E92E9FE3F92EEB
:1003920019821A82988D973641F0ED81FE8129816A
:1003A2003A81E20FF31FED83FE831C2DDCA2EAA249
:1003B2000F2D8B869C86AD86BE861C8A1D8A8C89F3
:1003C2009D89ED81FE818E179F07DCF5212F3CA1CF
:1003D2004AA1502F6B857C858D859E850E940115D3
:1003E2000E94D70C2B013C010E94CF146A8FA301FB
:1003F2009201612F7CA18AA1902F0E9405152B8565
:100402003C854D855E850E94C8149B01AC01505805
:100412002B873C874D875E8720E030E040E251E445
:10042200612F7CA18AA1902F0E940115162F7CA317
:100432008AA3092F4C895D894F5F5F4F4C8B5D8B7F
:10044200BECF20E030E040EA50E4612F7CA18AA1D7
:10045200902F0E9405152B013C019B01AC016B857D
:100462007C858D859E850E94F71487FD0DC0A301B2
:1004720092016B857C858D859E850E94F714811182
:1004820006C0FA8DF0FD03C0412C512C3201A501AA
:100492009401C301B2010E94C9144B015C0120E026
:1004A20030E040E251E4C701B6010E9405156B87B6
:1004B2007C8B182F092F9B01482F592FC501B4019E
:1004C2000E94FC1487FD14C029813A812F5F3F4F9F
:1004D20029833A833F85363679F44D815E814F5FB9
:1004E2005F4F4D835E835B855CA38C898DA30BC0BC
:1004F200CB86DC8A1E2D0F2D9F85953639F0EB8534
:10050200ECA3FC89FDA3E980FA8006C02B852CA30D
:100512003C893DA3E12CF12C48885988C12CD12C6F
:100522001C8A1D8A1B861C8649855A85407155275F
:100532004AA35BA32B853C854D815E812417350739
:1005420034F08C899D89892B09F494C09FC03201B3
:10055200EE89FF898085918505974816590688F7A7
:100562002CA13DA1412F502FC501B4010E940115BC
:100572000E94D70C6A8F7B8F8C8F9D8F0E94CF1425
:100582006A30710514F069E070E08AA19BA1892BA1
:1005920069F46115710551F4988D973639F4F7FEB7
:1005A20005C03601EFEF6E1A7E0A38C02C893D89EC
:1005B200232B99F4F7FE11C03FEF431A530AF101BE
:1005C200E60DF71D4EE240838B819C8101978B8360
:1005D2009C83E1E0F0E0EC8BFD8BF101E40DF51D75
:1005E20036016114710431F020E3219331E0631A82
:1005F2007108F7CFC601840D951D2B813C812C1902
:100602003D092C014FEF441A540AF101E80FF91F7A
:10061200605D6083C90101978B839C832A8D3B8D2A
:100622004C8D5D8D6CA17DA1812F902F0E940515AF
:10063200A50194010E94C8144B015C01B7FAB09461
:10064200B7F8B09420E030E040E251E46CA17DA123
:10065200812F902F0E9401156CA37DA3182F092FC3
:1006620091E0E91AF108EB85FC853196EB87FC876E
:10067200630160CFF985F4FF09C0F101E40DF51DB6
:100682008EE2808392012F5F3F4F2901A101440D29
:10069200551D4D835E83FA011082FF85F53609F000
:1006A20063C0E8A1F9A1E20DF31D319710822981FF
:1006B2003A8137FF08C031952195310929833A8360
:1006C20001E010E002C000E010E0E8A1F9A13197DA
:1006D200E20DF31D22E030E08AE0E82EF12CCF019A
:1006E2008219930949815A81452B91F089819A8116
:1006F200B7010E94BA13805D829369837A83215085
:1007020031094B815C81415051094B835C83E7CFB6
:10071200121613065CF3FC013197E20DF31D012B57
:1007220011F42BE201C02DE220830297B101680F80
:10073200791F598D252F550F330B215431092A3139
:10074200310510F025E601C025E4FB0120832B8151
:100752003C81225031092B833C834816590624F4EC
:100762008D819E810E94B014398531FF29C030FDF0
:1007720027C04B815C811416150614F5C1010E9435
:100782003414820D931D9C01221933094889598919
:10079200241735074CF0FC012081EB81FC81E80F26
:1007A200F91F20830197EFCF4B815C8160E370E0FA
:1007B20088899989820D931D0E9485141A8A1B8A41
:1007C200C1010E94341409851A852A893B89AC012A
:1007D200B1018E8D9F8D0E942A11A596E2E10C94A3
:1007E200A213598553FFB7CC80E2A8CCF5E6FF8768
:0807F200DCCD36E63F87D9CDCE
:1007FA00A0E2B0E0E3E0F4E00C945913888F998FFB
:10080A00FB012C8B20812F8331813A8F8281938146
:10081A008A8B9B8B248135812A873B8780859185AA
:10082A008B8F9C8F66807780FA01C080D180E280AE
:10083A00F38020E030E0A901C701B6010E94F71455
:10084A0087FF06C0F7FAF094F7F8F0948DE204C037
:10085A005F8152FFDDC28BE2F30180832A853B85EB
:10086A00215031092C873D8741E050E04D835E835A
:10087A0006C08A859B858C879D871D821E82B7014B
:10088A00A6017F774115510590E869079FE7790727
:10089A00B9F4AC892A2FAA0F330B215431098D815F
:1008AA009E81860D971D2A31310518F460E579EA93
:1008BA0002C064E579EA0E94B01484E599EA98C214
:1008CA00EC892E2FEE0F330B8D819E81860D971D9D
:1008DA004130510560487F4778F0215431092A3167
:1008EA00310518F468E579EA02C06CE579EA0E94F4
:1008FA00B0148CE599EA7CC240E3FC014083ED81A7
:10090A00FE813196E60DF71D4D815E814E5F5F4F88
:10091A004D835E83C901815491098E8B9F8B4A97BF
:10092A0010F088E701C088E5808320E030E0A90163
:10093A00C701B6010E94F7141B821C821F8E18A2DF
:10094A00882309F469C090E89983AFE3AA832F8DBD
:10095A0038A149815A816F8D78A189819A810E9433
:10096A00C9145B018C01A70196010E94FC14181698
:10097A000CF447C0EB81FC813196EB83FC83AF8E8C
:10098A00B8A209831A83E3CF20E030E040E05FE3B6
:10099A006F8D78A189819A810E94051520E030E047
:1009AA00A9010E94F714811118C020E030E040E844
:1009BA005AE56F8D78A189819A810E9405156F8FFA
:1009CA0078A389839A8320E030E040E85AE5C7019A
:1009DA00B6010E9405156B017C0120E030E040E081
:1009EA005FE36F8D78A189819A810E9405156F8FC7
:1009FA0078A389839A832B813C81215031092B83E7
:100A0A003C832F8D38A149815A81C701B6010E94C2
:100A1A00F71487FDB9CF04C030E839834FE34A831E
:100A2A008A899B8997FF02C088E190E0FC01319690
:100A3A00E887F9878F8C98A0A980BA801601870168
:100A4A00412C512C9401A501B101C8010E94011544
:100A5A000E94D70C6E877F87888B998B9401A5019A
:100A6A000E9405159B01AC01B101C8010E94C8147E
:100A7A001B018C0120E030E040E85DE3B401C501D0
:100A8A000E9405154B015C01FFEF4F1A5F0A2A8984
:100A9A003B8937FF09C020E030E0A901B101C80154
:100AAA000E94F714882331F0488559854416550663
:100ABA004CF202C04886598620E030E040E051E41A
:100ACA00B401C5010E9405154B015C019B01AC01F3
:100ADA00B101C8010E94F71487FD12C0A501940153
:100AEA00B101C8010E94F71481110DC06E857F857E
:100AFA00888999890E94CF1461707727672B19F426
:100B0A00812C912C5401A5019401C701B6010E94C0
:100B1A00C9146B017C01DC01CB01BF770097A048A7
:100B2A00BF4709F4B6CE2C843D8482E0281A3108E6
:100B3A00E885F985F195E195F109EC8BFD8B0D813D
:100B4A001E81412C512C1C861D86188619862B8DD8
:100B5A003C8D255031092D8F3E8F0E871F87ED8DD5
:100B6A00FE8D0E171F0708F093C02F8D38A14981FB
:100B7A005A81C701B6010E9401150E94D70C4B0188
:100B8A005C010E94CF14AB016115710541F4E8853F
:100B9A00F985EF2B21F0FFEF4F1A5F0A4FC02C8522
:100BAA003D85232B99F4E885F985EF2B79F00F5FC2
:100BBA001F4FEE85FF85E60DF71D2EE2208331E0FB
:100BCA00231A3108E1E0F0E0EC87FD87F301E00F3A
:100BDA00F11F92012115310529F0A0E3A1932150BB
:100BEA003109F8CFF801E40DF51DEE87FF872418C7
:100BFA0035084A3051051CF4605D7F4F02C0695ABE
:100C0A007F4F2E893F892A31310550F4CB0180620A
:100C1A00815691094A9720F4CB010E948E14BC0197
:100C2A000E851F850F5F1F4FEE85FF85E60DF71DA9
:100C3A00608331E0231A3108412C512C2F8D38A1C1
:100C4A0049815A81C501B4010E9405159B01AC0175
:100C5A00C701B6010E94C8146B017C0120E030E094
:100C6A0040E85DE36F8D78A189819A810E9405151C
:100C7A006F8F78A389839A83488559854150510992
:100C8A00488759878C899D898417950709F065CF0C
:100C9A002C853D85232B49F5F301E00FF11F411403
:100CAA005104E1F04A895B8914161506BCF45F8188
:100CBA0050FD14C08EE28083F8013196E60DF71DCF
:100CCA00C20120E321930197E9F7040D151D0F5F77
:100CDA001F4F40945094240C351C07C08F8184FF09
:100CEA0004C08EE280830F5F1F4FF301E00FF11FF4
:100CFA00E887F9871082EB8DFC8D3197E60DF71D99
:100D0A0010822B813C8137FF09C031952195310929
:100D1A002B833C83EE24E394F12C02C0E12CF12CCA
:100D2A0021E030E08AE0C82ED12CCF01861997093C
:100D3A004B815C81452B79F08B819C81B6010E94A5
:100D4A00BA13805D82936B837C832150310941E021
:100D5A00241A3108EACF2130310571F3FC013197A9
:100D6A00E60DF71DE114F10411F42BE201C02DE2A6
:100D7A0020830297B301680F791FEE89FF897A975A
:100D8A0010F020E701C020E5FB01208308171907AE
:100D9A0024F4888599850E94B014FF81F1FF27C049
:100DAA00F0FD25C022E0221A310812141304FCF4C3
:100DBA00C3010E943414860D971D9C012619370918
:100DCA004D815E81241735073CF0FC012081E20D3C
:100DDA00F31D20830197F1CFA10160E370E08D81BB
:100DEA009E81860D971D0E9485141A861B86C30153
:100DFA000E9434140F811A8D2A853B85AC01B301F8
:100E0A00888D998D0E942A11A096E2E10C94A21372
:0A0E1A005F8153FF2ECD80E21FCD53
:100E2400A2E1B0E0E8E1F7E00C945C134C016B0143
:100E340019821A828FEF9FEF8B839C831D821E82FF
:100E44004F83588729873A87A12CB12CD6016D90FE
:100E54007C90F301EA0DFB1D808181110FC0D60146
:100E6400ED93FC938081853209F0D9C13F01BFEF36
:100E74006B1A7B0AF6016082718219C0853279F39C
:100E8400B401082E000C990B0E9463104FEFA41AB2
:100E9400B40ADCCF8C32ACF08D32F9F489819A81BA
:100EA400816089839A833196D601ED93FC93D601B0
:100EB400ED91FC9180818B3269F789819A818460FC
:100EC400F0CF803221F489819A818860EACF83321D
:100ED40051F489819A818061E4CF803321F489813E
:100EE4009A818260DECFB701C6010E94C6118D834C
:100EF4009E8397FF0BC029813A81B1E02B27298378
:100F04003A839195819591098D839E8389819A81F4
:100F140080FF03C08D7F89839A83D601ED91FC9174
:100F2400119780818E3249F43196ED93FC93B70189
:100F3400C6010E94C6118B839C83C6010E94A6121F
:100F4400582ED601ED91FC918081082E000C990B4E
:100F54000E94B814893609F443C084F4833609F432
:100F640008C134F4853209F42DC18136E1F036C16B
:100F74008436B1F188360CF4DFC030C1803709F40F
:100F84009AC03CF48E3609F4C2C08F3609F461C0AD
:100F940025C1853709F440C0883709F476C0833702
:100FA40009F01CC1F9C0652D70E0A701CE010B96B4
:100FB4000E94C612892B09F42CC1D601ED91FC9133
:100FC4001197CF0101968D939C932081AE01455FCB
:100FD4005F4FBE016F5F7F4FC4010E94FD0316C1C6
:100FE400652D70E0970141E050E0CE010B960E9420
:100FF400FB0A892B09F40DC1F601808191810196C8
:1010040080839183AE01455F5F4FBE016F5F7F4F69
:10101400C4010E94410AFAC0652D70E0970140E0C6
:1010240050E0CE010B960E94FB0A892B09F4F1C013
:10103400D6018D919C91119701968D939C93AE014D
:10104400455F5F4FBE016F5F7F4FC4010E94BB0FBE
:10105400DDC0652D70E0970140E050E0CE010B96B5
:101064000E94FB0A892B09F4D4C0F6018081918186
:10107400019680839183AE01455F5F4FBE016F5F30
:101084007F4FC4010E94900EC1C0652D70E097018E
:1010940040E050E0CE010B960E94FB0A892B09F434
:1010A400B8C0D601ED91FC911197CF0101968D93B3
:1010B4009C93208122C0D701ED91FC911197CF011F
:1010C40002968D939C93008111810B871C871D864A
:1010D4001E861F86188A198A1A8AF60180819181D0
:1010E4000196808391838B859C85892B29F420E04C
:1010F40030E049E15AEA84C028E7AE01455F5F4F1A
:10110400BE016F5F7F4FC4010E9416097FC0A50115
:10111400400F511F652D70E09701CE010B960E9480
:10112400BA0D892B09F475C0D6018D919C91119744
:1011340001968D939C9373C0652D70E0A701CE0139
:101144000B960E94C612892B09F463C0D601ED9157
:10115400FC911197CF0101968D939C932081AE0150
:10116400455F5F4FBE016F5F7F4FC4010E946900FE
:101174004DC0B0E85B124DC0F601808191810196AB
:1011840080839183D701ED91FC911197CF01029651
:101194008D939C93808120C0B0E85B123AC0F60125
:1011A40080819181019680839183D701ED91FC9197
:1011B4001197CF0102968D939C934081518120E039
:1011C40030E01EC0B0E85B1224C0F60120813181FA
:1011D4002F5F3F4F208331838B870DC085E28B8740
:1011E400D6016D927C9219821A821D821E828FEF23
:1011F4009FEF8B839C8321E030E0AE01455F5F4F1E
:10120400BE016F5F7F4FC4010E94F4118A0D9B1DC4
:1012140007C0F60180819181019680839183C50185
:081224006296EFE00C94A513A3
:10122C00A4E1B0E0ECE1F9E00C9459138F839887BA
:10123C0069837A834B8B5C8B122FDB011296ED91B9
:10124C00FC91139714962D913C9115972D833E8309
:10125C00CD90DC90119716962D903C901797F7FD3A
:10126C0003C0E894C1F802C0E1E0F0E0C60180716F
:10127C00992789879A87C4FE18C0AB89BC892C91A1
:10128C0011963C91119712964D915D916D917C91B7
:10129C00159716968C91169717969C910E949714F9
:1012AC0021F08D819E81029702C08D819E819601D5
:1012BC00287033272B873C87C3FC0197AB89BC89EB
:1012CC004C9011965C90119712966D907D908D902C
:1012DC009C9015971696AC9016971796BC90A98172
:1012EC00BA811896ED90FC901997B1E0EB1AF108C1
:1012FC00D101AE0DBF1D1C928B839C839F01281BBB
:10130C00390B2D873E87C601827099278F87988B62
:10131C00812F012E000C990BDC01A154B109A98B72
:10132C00BA8B32E0E316F10430F489859A85892B67
:10133C0009F04BC06BC09201A301B401C5010E941E
:10134C00971481F1B1E0EB1AF108C2018F70992763
:10135C008A30910514F4C09602C0895A9F4FE989CE
:10136C00FA897A9748F49C012062215631092A3176
:10137C00310510F40E948E14F101EE0DFF1D8083D7
:10138C002B813C81215031092B833C839201A30199
:10139C00B401C50104E00E94071329013A014B0175
:1013AC005C01BFCF8D859E85AB81BC818A0F9B1F55
:1013BC00181619063CF21A161B060CF0B6CFEF8560
:1013CC00F889EF2B09F0BECFB0CFAB89BC892C913B
:1013DC0011963C91119712964D915D916D917C9166
:1013EC00159716968C91169717969C910E949714A8
:1013FC0069F0F101EE0DFF1D31971083B2E0EB1A8D
:10140C00F108F101EE0DFF1D80E38083EB85FC8577
:10141C00EF2B41F0F1E0EF1AF108F101EE0DFF1D99
:10142C0080E28083A981BA8118964D915C911997BD
:10143C00415051094E195F09B1016E0D7F1D860196
:10144C002D813E818F8198850E942A119C01EF810C
:10145C00F8858081918190FF09C0A981BA8112968B
:10146C008D919C911397821793070CF4C901649684
:06147C00E2E10C94A21352
:10148200ACE0B0E0E7E4FAE00C94591389879A875C
:101492006B837C83FA01DB011296CD90DC9013976B
:1014A20014968D919C9115978D839E83ED90FC905F
:1014B2001197E982FA8216960D90BC91A02DAF8306
:1014C200B887208031804280538064807580868016
:1014D20097808101B42DA52DF62DE72D8B869C8654
:1014E2009101A201B301C4010E9497144CF40E941D
:1014F20024148901B42FA52FF62FE72F8B879C8701
:10150200D7FC04C0E894E1F8E982FA829101A201D1
:10151200B301C401ED80FE800E9497141CF0898102
:1015220082FF04C081E0E81AF10805C083FF03C00E
:1015320091E0E91AF108CE0101965C018AE0C82E19
:10154200D12C2B2F3A2F4F2F5E2F6B857C858B81D1
:101552009C810E94B40BFC019101A201B301C40160
:101562000E9497141CF0898182FF10C03197AF81CD
:10157200B885AE0FBF1F9101A201B301C4010E9441
:10158200971414F08BE20AC08DE208C083FF07C0F3
:101592003197AF81B885AE0FBF1F80E28C9309816E
:1015A2001A81AB81BC8118964D915C91199741507B
:1015B20051094E1B5F0B6F8178856E0F7F1F2D8146
:1015C2003E8189859A850E942A119C01E985FA85C6
:1015D2008081918190FF09C0AB81BC8112968D916F
:1015E2009C911397821793070CF4C9012C96E2E1A0
:0415F2000C94A213A0
:1015F6000F931F93CF93DF93FC01D90168387105D0
:1016060031F194F461387105B1F12CF4603871054B
:1016160009F478C09FC06238710509F459C064386E
:10162600710509F46FC096C0603A710509F448C0A7
:101636002CF46039710509F44BC08CC0603C71050F
:1016460009F476C0603F710509F472C083C0CD917C
:10165600DC911197CE0102968D939C93452B39F020
:101666009881892F880F880B908381835BC088813E
:101676008083118268C0CD91DC911197CE010496CA
:101686008D939C93452B99F088819981AA81BB8182
:10169600AC01BD01770F440B542FBA0180839183AF
:1016A600A283B383448345834683478328C0088146
:1016B60019812A813B81008311832283338345C0AC
:1016C600CD91DC911197CE0102968D939C9323C008
:1016D600CD91DC911197CE0108968D939C937881DC
:1016E60069815A814B813C812D819E818F817083D6
:1016F600618352834383348325839683878381E082
:1017060090E02AC0CD91DC911197CE0102968D937F
:101716009C93452BA1F099812881892F880F880BEE
:101726002083918382838383848385838683E6CF24
:10173600CD91DC911197CE0102968D939C930881F1
:1017460019810083118312821382148215821682F4
:101756001782D5CF80E090E0DF91CF911F910F9156
:021766000895E4
:10176800A2E1B0E0EAEBFBE00C945913FC010A8B10
:101778001B832C83732E642E552E462E7D83CC8698
:10178800D886AE82BF82268137812A873B87D501DA
:101798008D919C9122813381408551851A01B1E058
:1017A8002B1A310837FF02C021E030E0EA85FB85BB
:1017B800E20DF31D10824701E1E0F0E0E983FA83CE
:1017C800A9014E195F094D875E87DC01A270BB270E
:1017D800AF87B88BB885BB0FBB0BB98B211431040D
:1017E80009F450C02A893B814C81572D662D752DEF
:1017F800842D9D810E949714B1F1E1E02E1A3108E1
:10180800FC85F987AF2EB884C988DC2CEC2CFC2C1D
:101818000C2D1C2D2A893B814C81572D662D752D49
:10182800842D9D810E944214C90129839A83EA85E7
:10183800FB85E20DF31D805D808321E0821A91080B
:101848002A893B814C81572D662D752D842D9D81CC
:101858000E9444142A8B3B834C83752E662E572E88
:10186800482E9D83BBCF8D859E85880D991D1816A2
:1018780019061CF2181419042CF44F855889452BA5
:1018880009F0BBCF89819A81892B41F4AE81BF8150
:101898008D919C9111978F7E8D939C93C101629637
:0618A800E2E10C94A21322
:1018AE00009BAD36C15A6CF71982B42FD84375EE32
:1018BE0032A99F04F3685EC52BB0861DEA7147DC22
:1018CE0064FFC952A53E08937DE6D04BBC27118A12
:1018DE0056CDFB60970C3AA14FD4E2798E1523B802
:1018EE00C85365FE0992A43FD14A7CE7108BBD26F2
:1018FE00FA6157CC3BA0960DE3784ED522B98F14E2
:10190E00AC37019A6DF6C05BB52E188374EFD942D1
:10191E009E0533A85FC4F269871C2AB146DDEB70C1
:10192E000B90A63DCA5167FC1289BF24D3487EE5B1
:10193E0039A2940FF86355CE20BB8D16E17A4CD7A1
:10194E006FF4C259AE35039876EDDB40B72C1A8191
:10195E005DC6F06B9C0731AA44DFE972851E28B381
:10196E00C3586EF50299AF34DA4177EC1B80B62D71
:10197E00F16A5CC730AB9D06E87345DE29B2841F61
:10198E00A73C0A9166FDCB50BE2513887FE4D24951
:10199E00950E38A354CFF9628C1721BA4DD6E07B41
:1019AE008F929F92AF92BF92CF92DF92EF92FF9261
:1019BE000F931F938B019C011127032F000F111FF3
:1019CE0027FB00F9222733271127A8014F5751096A
:1019DE00473151050CF045C057FD2DC00FEF1FEFDD
:1019EE002FE730E004C035952795179507954A9552
:1019FE00D2F74801590186229722A822B9228928B6
:101A0E008A288B2871F197FF07C0DC01CB01800F6C
:101A1E00911FA21FB31F02C0DC01CB0100951095D0
:101A2E002095309580239123A223B323482F392F5D
:101A3E002A2F5B2F1AC097FF0FC08B019C01000F3E
:101A4E00111F221F331F012B022B032B51F040E0DD
:101A5E0030E020E85FEB09C040E030E020E050E0ED
:101A6E0004C0462F372F282F592F642F732F822F04
:101A7E00952F1F910F91FF90EF90DF90CF90BF9019
:081A8E00AF909F908F90089526
:101A960010C00E94DD1458F00E94D61440F029F4BC
:101AA6005F3F29F00C94F11451110C94E5140C9439
:101AB60010150E94641268F39923B1F3552391F32C
:101AC600951B550BBB27AA2762177307840738F0A7
:101AD6009F5F5F4F220F331F441FAA1FA9F335D004
:101AE6000E2E3AF0E0E832D091505040E695001CB8
:101AF600CAF72BD0FE2F29D0660F771F881FBB1F72
:101B0600261737074807AB07B0E809F0BB0B802D4F
:101B1600BF01FF2793585F4F3AF09E3F510578F07B
:101B26000C94F1140C94E5145F3FE4F3983ED4F35F
:101B3600869577956795B795F7959F5FC9F7880F4F
:101B4600911D9695879597F90895E1E0660F771FA1
:101B5600881FBB1F621773078407BA0720F0621B32
:0E1B6600730B840BBA0BEE1F88F7E095089501
:101B7400CF93DF93DC01F90164387105D9F164F482
:101B84006138710521F16238710509F440C060388B
:101B9400710509F054C02EC060397105C1F184F497
:101BA4006838710509F04BC0C081D181CE0102961D
:101BB40080839183E881F981ED93FC9340833CC059
:101BC400603A7105B9F0603C7105A1F038C0C0817C
:101BD400D181CE01029680839183E881F981ED93CE
:101BE400FC93052E000C660B770B408351836283B4
:101BF400738322C0C081D181CE01029680839183F8
:101C0400E881F981ED93FC934083518315C0C08131
:101C1400D181CE01029680839183E881F981ED938D
:101C2400FC9340835183852F880F880B82838383A1
:101C3400848385838683878381E090E002C080E08B
:081C440090E0DF91CF910895BB
:101C4C000FC00E94D61438F00E94DD1420F09523AA
:101C5C0011F00C94F1140C94101511240C94E5143F
:101C6C000E94641270F3959FC1F3950F50E0551FBD
:101C7C00629FF001729FBB27F00DB11D639FAA27D5
:101C8C00F00DB11DAA1F649F6627B00DA11D661F24
:101C9C00829F2227B00DA11D621F739FB00DA11D45
:101CAC00621F839FA00D611D221F749F3327A00DFF
:101CBC00611D231F849F600D211D822F762F6A2F9B
:101CCC0011249F5750409AF0F1F088234AF0EE0F00
:101CDC00FF1FBB1F661F771F881F91505040A9F72D
:101CEC009E3F510580F00C94F1140C94E5145F3F69
:101CFC00E4F3983ED4F3869577956795B795F79569
:101D0C00E7959F5FC1F7FE2B880F911D96958795E0
:041D1C0097F9089596
:101D2000A2E0B0E0E6E9FEE00C9459131C014B017F
:101D3000FA01DB0112962D913C91139714964D9068
:101D40005C9015978D919C91119789839A83169633
:101D50006D907C90179737FD03C08D7F89839A83A0
:101D6000008111812281338144815581668177818F
:101D7000FE0131965F0188E0C82ED12C7201C401AA
:101D80000E94B40B298124FF06C00197F301E80FDC
:101D9000F91F20E32083298123FF06C00197F30167
:101DA000E80FF91F20E2208309811A81D4011896D7
:101DB0004D915C91199741505109481B590BB30142
:101DC000680F791F9201C1010E942A119C01F10143
:101DD0008081918190FF08C0D40112968D919C91D1
:101DE0001397821793070CF4C9012296E2E10C9431
:021DF000A2133C
:101DF20011C00E94D61438F00E94DD1420F039F48C
:101E02009F3F19F426F40C9410150EF4E095E7FBAD
:101E12000C94F114E92F0E94641258F3BA17620766
:101E220073078407950720F079F4A6F50C94E4145F
:101E32000EF4E0950B2EBA2FA02D0B01B9019001E3
:101E42000C01CA01A0011124FF27591B99F0593F27
:101E520050F4503E68F11A16F040A22F232F342F6F
:101E62004427585FF3CF469537952795A795F040BD
:101E72005395C9F77EF41F16BA0B620B730B840BD2
:101E8200BAF09150A1F0FF0FBB1F661F771F881F8A
:101E9200C2F70EC0BA0F621F731F841F48F48795E2
:101EA20077956795B795F7959E3F08F0B0CF9395D4
:0E1EB200880F08F09927EE0F979587950895F1
:101EC0001F93CF93DF93EC0163E00E947213182FEE
:101ED000FE0133969E012B5F3F4FC0E0D0E0C295DC
:101EE000D295D07FDC27C07FDC27819190ED980FC1
:101EF0009A3078F09FEB980F963018F499EC980F81
:101F000008C09FE9980F963018F499EA980F01C01D
:101F100090E0C92BE217F30711F71F921F9382ED90
:101F200095EA9F938F930E948612CE0199279F93E3
:101F30008F9382EE95EA9F938F930E9486128DB7BE
:101F40009EB708968DBF9EBF1C1719F08FEC95EABF
:101F500002C08CEC95EA9F938F9386EF95EA9F934E
:101F60008F930E9486120F900F900F900F90DF9129
:061F7000CF911F910895BE
:101F7600A2E0B0E0E1ECFFE00C9459133C014B0108
:101F8600FA01DB0112962D913C91139714964D9010
:101F96005C9015978D919C91119789839A831696DB
:101FA6002D903C90179737FD03C08D7F89839A83C8
:101FB6000081118122813381448155816681778137
:101FC600FE0131965F018AE0C82ED12C7201C40150
:101FD6000E94B40B09811A81D40118964D915C9127
:101FE600199741505109481B590BB101680F791FC8
:101FF6009201C3010E942A119C01F3018081918103
:1020060090FF08C0D40112968D919C911397821768
:0E20160093070CF4C9012296E2E10C94A21388
:1020240088249924F401E401B0E49F93AA279A1523
:102034008B049C04ED05FE05CF05D007A10798F499
:10204400AD2FDC2FCF2FFE2FE92D982C892E982F22
:10205400872F762F652F542F432F322F2227B850E6
:1020640031F7BF9127C01B2EBF91BB27220F331F0F
:10207400441F551F661F771F881F991F881C991CB2
:10208400EE1FFF1FCC1FDD1FAA1FBB1F8A149B045A
:10209400EC05FD05CE05DF05A007B10748F08A1859
:1020A4009B08EC09FD09CE09DF09A00BB10B2160E7
:1020B4001A94E1F62EF49401AF01BE01CD01000C97
:0220C40008957D
:1020C6000F931F93CF93DF93DB01109719F48FEFD4
:1020D6009FEF3DC02D913C91119730FF25C016967C
:1020E6004D915C91179714962D913C911597421737
:1020F600530778F41296ED91FC911397808312960C
:102106002D913C9113972F5F3F4F12962D933C9341
:10211600139716962D913C9117972F5F3F4F169662
:102126002D933C93179713C01C96ED91FC911D9728
:10213600309769F2EB01092F182F0995892B39F68B
:102146008E819F8101968E839F83812F902FDF91B1
:08215600CF911F910F91089534
:10215E00A0E1B0E0E5EBF0E10C946313FB01BA01F2
:10216E00AE014F5F5F4F6A0140E1D6011D924A9565
:10217E00E9F742E051E049835A838B839C83F7FF52
:10218E0009C08FE490E080930038909301388FEF70
:10219E009FEF1CC0309729F0AF01415051094D837C
:1021AE005E83A9018F017C01C6010E948A1301156D
:1021BE00110561F04F8158852D813E8142175307DD
:1021CE0008F49A01F701E20FF31F10826096E8E01F
:0421DE000C94AC139E
:1021E2000F931F93CF93DF93CDB7DEB76097CDBF29
:1021F200DEBF0E945B1400E010E01CC00E945B1472
:102202000023C1F08E3361F4E1E0F0E0EC0FFD1F3A
:10221200E10FF11D1082CE0101960E94600F11C0E4
:10222200103140F4E1E0F0E0EC0FFD1FE10FF11D91
:1022320080831F5F8C3311F70E945B1410E001E072
:10224200E1CF6096CDBFDEBFDF91CF911F910F919D
:022252000895ED
:10225400A0E0B0E0E0E3F1E10C945F136C015B01FA
:102264007A01E901480181E08822992400FD03C034
:102274004217530750F0A701B501C6010E9423136A
:10228400EC16FD0610F0C70117C08E010E191F09C8
:102294000115110541F0B60180E290E00E9463103F
:1022A40001501109F5CF8114910429F4A701B50156
:1022B400C6010E942313CE01CDB7DEB7ECE00C9427
:0222C400A8135D
:1022C600A2E8B0E0E9E6F1E10C945F135C014A0193
:1022D60069837A83C12CD12CE981FA818081882394
:1022E600E9F07401860120E830E0AE014D5F5F4FF2
:1022F600BE016F5F7F4FC5010E9412078C0D9D1DA9
:102306008C159D054CF48FE490E0809300389093F3
:1023160001388FEF9FEF03C06C01DECFC601CE57A9
:08232600DF4FECE00C94A8135A
:10232E000E946C1288F09F5798F0B92F9927B751D9
:10233E00B0F0E1F0660F771F881F991F1AF0BA955B
:10234E00C9F714C0B13091F00E94E414B1E00895C1
:10235E000C94E414672F782F8827B85F39F0B93FB3
:10236E00CCF3869577956795B395D9F73EF490950E
:0E237E008095709561957F4F8F4F9F4F08950A
:10238C00DC01ED91FC91119780818A3221F080E083
:10239C0090E03AE00EC03196ED93FC93DB01ED91A9
:1023AC00FC911197CF0102968D939C938081918122
:1023BC000895ED91FC911197208120532A3068F4F7
:1023CC00389FA001399F500D1124CA01820F911D15
:0C23DC003196ED93FC931197ECCF08951F
:1023E800A0E0B0E0EAEFF1E10C9461137C01FB019D
:1023F800EA01C901A280B380C480D580008111811F
:10240800209711F4C2E1DAEA009719F4CE010E948C
:102418003414B7FC04C0A816B90608F4C50196011F
:10242800AC01BE01C7010E942A11CDB7DEB7EAE0B0
:042438000C94AA1343
:10243C00990F0008550FAA0BE0E8FEEF16161706C9
:10244C00E807F907C0F012161306E407F50798F031
:10245C00621B730B840B950B39F40A2661F0232B4A
:10246C00242B252B21F408950A2609F4A140A695C6
:08247C008FEF811D811D089501
:10248400EF92FF920F931F93CF93DF938C017C0104
:10249400C0E0D0E006C0F70181917F010E94A01442
:1024A4002196F80101900020E9F73197E01BF10B28
:1024B400CE17DF0780F3DF91CF911F910F91FF902B
:0424C400EF900895F8
:1024C80057FD9058440F551F59F05F3F71F04795DD
:1024D800880F97FB991F61F09F3F79F087950895C2
:1024E800121613061406551FF2CF4695F1DF08C0E1
:1024F800161617061806991FF1CF869571056105FE
:042508000894089596
:10250C00CF93DF93CDB7DEB7C054D109CDBFDEBFBB
:10251C009E012B5B3F4FF901419151919F0160E46A
:10252C0070E0CE0101960E94AF10CE0101960E9480
:10253C004212C05CDF4FCDBFDEBFDF91CF9108955B
:10254C00CF93DF93EC0190E0E92FF0E0EE0FFF1F4B
:10255C00EE51F7458081811102C081810EC0A881A6
:10256C00B9812C91821305C091811196A883B983EE
:10257C0001C09F5F9B3040F3892FDF91CF9108956D
:10258C00FA0160387105CCF0623871051CF06338C3
:10259C00710599F4A081B1819D012C5F3F4F20837F
:1025AC0031834D915D916D917C91FC014083518300
:1025BC006283738381E090E0089580E090E0089559
:1025CC006F6B006E6F0064617461206372633A20FC
:1025DC002578200D0A006372632072656365697645
:1025EC0065643A202578200D0A00637263207265B9
:0E25FC006365697665643A202573200D0A0038
:10260A0097FB10F8169400080F93083098F00850BA
:10261A00232F342F452F562F672F782F892F902D50
:10262A00F4CF05949795879577956795579547952C
:0C263A00379527950A95AAF70F9108958F
:10264600A0E0B0E0E9E2F3E10C9463136C01EB0166
:102656008A017B01E40EF51ECE15DF0541F0899156
:10266600B601082E000C990B0E946310F5CFC80125
:0A267600CDB7DEB7E8E00C94AC131A
:10268000A0E2B4E08AE012968C931297E0E0F4E0C6
:1026900080EE828384E0858B868B878B88E05196E1
:1026A0008C9351979EE1918395E011969C9385833D
:0226B00008958B
:1026B2002F923F924F925F926F927F928F929F9250
:1026C200AF92BF92CF92DF92EF92FF920F931F933E
:1026D200CF93DF93CDB7DEB7CA1BDB0BCDBFDEBF17
:0226E200099459
:1026E4006623A1F0DC016150262F30E02F5F3F4FBD
:1026F400280F391F8FEFED918E27E82FF0E0E25578
:10270400F7468081A217B307B1F708958FEF0895B4
:10271400A2E0B0E0E0E9F3E10C9467138C01498393
:102724005A83AE014F5F5F4F0E946311F80120810D
:1027340024FF02C08FEF9FEF2296E4E00C94B013C5
:102744002A88398848885F846E847D848C849B843D
:10275400AA84B984C884DF80EE80FD800C811B814B
:10276400AA81B981CE0FD11DCDBFDEBFED01089581
:1027740097FB072E16F4009407D077FD09D00E942A
:10278400CE1307FC05D03EF4909581959F4F089594
:08279400709561957F4F0895D7
:10279C00AA1BBB1B51E107C0AA1FBB1FA617B7077B
:1027AC0010F0A61BB70B881F991F5A95A9F7809597
:0827BC009095BC01CD010895C8
:1027C400E0E0F6E080E2808383E081831086118676
:1027D40080E18287808181608083868180FDFDCF56
:0227E400089556
:1027E600092E0394000C11F4882352F0BB0F40F419
:1027F600BF2B11F460FF04C06F5F7F4F8F4F9F4F59
:02280600089533
:102808000E9414140E9440130E9450140E94E21364
:1028180081E00E947C14809128040E94F110FDCF71
:1028280060E080E690E00E94EB1460E081E690E0D2
:102838000E94EB14E0E6F0E0838180FDFDCF08956F
:102848006095709580959095309540955095219517
:102858003F4F4F4F5F4F6F4F7F4F8F4F9F4F0895A1
:10286800FC01AF014F5F5F4F2081222311F0FA0175
:0C287800F8CF9F01281B390BC9010895FF
:10288400689401C0E8948F929F92CF93DF930E9443
:0C2894001210DF91CF919F908F9008955B
:1028A000E0E0F8E086EB92E08087918782EC868317
:0628B00083E08783089518
:1028B60080E880930408E0E0F8E084818823ECF760
:0628C60080910008089556
:1028CC00EC010E9418150E941715CE010E941915D3
:0628DC00CE010E9415155B
:1028E20068076C094C836A9074A07AC0008068887B
:0628F20000846C820081ED
:1028F800813019F480932504089581E0809326049B
:02290800089530
:10290A00FC01480F591FE417F50711F06193FBCF3B
:02291A0008951E
:10291C009C01215631092A31310510F48F75992704
:02292C0008950C
:10292E002115310541055105610571058105910599
:02293E000895FA
:10294000E0E0F8E0948195FFFDCF809302080895C0
:10295000494E4600696E66004E414E006E616E0043
:10296000FC01DB012D91BD0121932111FACF0895C6
:102970009C01215431092A31310508F480620895FF
:10298000494E4600696E66004E414E006E616E0013
:0E2990005058BB27AA270E94F90E0C94F3138F
:0E299E000E9497116894B1110C94E5140895ED
:0E29AC0000240A941616170618060906089548
:0E29BA0000240A94121613061406050608954A
:0E29C800E894BB2766277727CB0197F908957F
:0C29D600DC0128ED209334006C93089580
:0C29E20097F99F6780E870E060E00895BE
:0A29EE000E941E1208F481E0089513
:0A29F8000E941E1208F48FEF0895EC
:082A02000E944B0D0C94F3132C
:082A0A000E94260E0C94F31348
:072A1200286E756C6C2900B1
:062A1900286E696C290023
:062A20009FEF80EC089519
:042A26000C9400000C
:042A2A000E9467009F
:022A2E00089509
:022A3000089507
:022A3200089505
:00000001FF
